{
  "contractName": "IdentityGovernment",
  "abi": [
    {
      "inputs": [
        {
          "name": "_owner",
          "type": "address"
        }
      ],
      "payable": false,
      "stateMutability": "nonpayable",
      "type": "constructor"
    },
    {
      "constant": false,
      "inputs": [
        {
          "name": "_requestor",
          "type": "address"
        },
        {
          "name": "_claimNum",
          "type": "uint256"
        },
        {
          "name": "_expiry",
          "type": "uint256"
        },
        {
          "name": "_dataId",
          "type": "bytes32"
        },
        {
          "name": "_descr",
          "type": "bytes32"
        },
        {
          "name": "_verifierName",
          "type": "bytes32"
        },
        {
          "name": "_verifier",
          "type": "address"
        },
        {
          "name": "_verified",
          "type": "bool"
        }
      ],
      "name": "addVerificationRequest",
      "outputs": [],
      "payable": false,
      "stateMutability": "nonpayable",
      "type": "function"
    },
    {
      "constant": false,
      "inputs": [
        {
          "name": "_requestNum",
          "type": "uint256"
        }
      ],
      "name": "verifyClaim",
      "outputs": [],
      "payable": false,
      "stateMutability": "nonpayable",
      "type": "function"
    },
    {
      "constant": true,
      "inputs": [],
      "name": "getVerifRequestCount",
      "outputs": [
        {
          "name": "",
          "type": "uint256"
        }
      ],
      "payable": false,
      "stateMutability": "view",
      "type": "function"
    },
    {
      "constant": true,
      "inputs": [
        {
          "name": "_index",
          "type": "uint256"
        }
      ],
      "name": "getVerifRequest",
      "outputs": [
        {
          "name": "",
          "type": "address"
        },
        {
          "name": "",
          "type": "uint256"
        },
        {
          "name": "",
          "type": "bytes32"
        },
        {
          "name": "",
          "type": "bytes32"
        },
        {
          "name": "",
          "type": "bytes32"
        },
        {
          "name": "",
          "type": "address"
        },
        {
          "name": "",
          "type": "bool"
        }
      ],
      "payable": false,
      "stateMutability": "view",
      "type": "function"
    }
  ],
  "bytecode": "0x608060405234801561001057600080fd5b50604051602080610e6483398101806040528101908080519060200190929190505050806000806101000a81548173ffffffffffffffffffffffffffffffffffffffff021916908373ffffffffffffffffffffffffffffffffffffffff16021790555033600260006101000a81548173ffffffffffffffffffffffffffffffffffffffff021916908373ffffffffffffffffffffffffffffffffffffffff16021790555050610da0806100c46000396000f300608060405260043610610062576000357c0100000000000000000000000000000000000000000000000000000000900463ffffffff1680634b423fa914610067578063a03100fe14610146578063ba925207146101f3578063c0d7e2b61461021e575b600080fd5b34801561007357600080fd5b506100926004803603810190808035906020019092919050505061024b565b604051808873ffffffffffffffffffffffffffffffffffffffff1673ffffffffffffffffffffffffffffffffffffffff1681526020018781526020018660001916600019168152602001856000191660001916815260200184600019166000191681526020018373ffffffffffffffffffffffffffffffffffffffff1673ffffffffffffffffffffffffffffffffffffffff1681526020018215151515815260200197505050505050505060405180910390f35b34801561015257600080fd5b506101f1600480360381019080803573ffffffffffffffffffffffffffffffffffffffff1690602001909291908035906020019092919080359060200190929190803560001916906020019092919080356000191690602001909291908035600019169060200190929190803573ffffffffffffffffffffffffffffffffffffffff169060200190929190803515159060200190929190505050610433565b005b3480156101ff57600080fd5b5061020861077b565b6040518082815260200191505060405180910390f35b34801561022a57600080fd5b50610249600480360381019080803590602001909291905050506107e3565b005b600080600080600080600061025e610c1c565b6000809054906101000a900473ffffffffffffffffffffffffffffffffffffffff1673ffffffffffffffffffffffffffffffffffffffff163373ffffffffffffffffffffffffffffffffffffffff161415156102b957600080fd5b6001898154811015156102c857fe5b9060005260206000209060070201610100604051908101604052908160008201548152602001600182015481526020016002820154600019166000191681526020016003820154600019166000191681526020016004820154600019166000191681526020016005820160009054906101000a900473ffffffffffffffffffffffffffffffffffffffff1673ffffffffffffffffffffffffffffffffffffffff1673ffffffffffffffffffffffffffffffffffffffff1681526020016006820160009054906101000a900473ffffffffffffffffffffffffffffffffffffffff1673ffffffffffffffffffffffffffffffffffffffff1673ffffffffffffffffffffffffffffffffffffffff1681526020016006820160149054906101000a900460ff16151515158152505090508060c0015181602001518260400151836060015184608001518560a001518660e00151975097509750975097509750975050919395979092949650565b600061043d610c1c565b6000809054906101000a900473ffffffffffffffffffffffffffffffffffffffff1673ffffffffffffffffffffffffffffffffffffffff168473ffffffffffffffffffffffffffffffffffffffff1614151561049857600080fd5b600260009054906101000a900473ffffffffffffffffffffffffffffffffffffffff1673ffffffffffffffffffffffffffffffffffffffff1663618a832f60038c6040518363ffffffff167c0100000000000000000000000000000000000000000000000000000000028152600401808381526020018273ffffffffffffffffffffffffffffffffffffffff1673ffffffffffffffffffffffffffffffffffffffff16815260200192505050602060405180830381600087803b15801561055e57600080fd5b505af1158015610572573d6000803e3d6000fd5b505050506040513d602081101561058857600080fd5b810190808051906020019092919050505091508173ffffffffffffffffffffffffffffffffffffffff163373ffffffffffffffffffffffffffffffffffffffff161415156105d557600080fd5b610100604051908101604052808a81526020018981526020018860001916815260200187600019168152602001866000191681526020018573ffffffffffffffffffffffffffffffffffffffff1681526020018b73ffffffffffffffffffffffffffffffffffffffff168152602001841515815250905060018190806001815401808255809150509060018203906000526020600020906007020160009091929091909150600082015181600001556020820151816001015560408201518160020190600019169055606082015181600301906000191690556080820151816004019060001916905560a08201518160050160006101000a81548173ffffffffffffffffffffffffffffffffffffffff021916908373ffffffffffffffffffffffffffffffffffffffff16021790555060c08201518160060160006101000a81548173ffffffffffffffffffffffffffffffffffffffff021916908373ffffffffffffffffffffffffffffffffffffffff16021790555060e08201518160060160146101000a81548160ff02191690831515021790555050505050505050505050505050565b60008060009054906101000a900473ffffffffffffffffffffffffffffffffffffffff1673ffffffffffffffffffffffffffffffffffffffff163373ffffffffffffffffffffffffffffffffffffffff161415156107d857600080fd5b600180549050905090565b60008060008060008060009054906101000a900473ffffffffffffffffffffffffffffffffffffffff1673ffffffffffffffffffffffffffffffffffffffff163373ffffffffffffffffffffffffffffffffffffffff1614151561084657600080fd5b60008611801561085b57506001805490508611155b151561086657600080fd5b600180870381548110151561087757fe5b906000526020600020906007020160060160009054906101000a900473ffffffffffffffffffffffffffffffffffffffff16945060018087038154811015156108bc57fe5b9060005260206000209060070201600001549350600260009054906101000a900473ffffffffffffffffffffffffffffffffffffffff1673ffffffffffffffffffffffffffffffffffffffff1663618a832f6003876040518363ffffffff167c0100000000000000000000000000000000000000000000000000000000028152600401808381526020018273ffffffffffffffffffffffffffffffffffffffff1673ffffffffffffffffffffffffffffffffffffffff16815260200192505050602060405180830381600087803b15801561099657600080fd5b505af11580156109aa573d6000803e3d6000fd5b505050506040513d60208110156109c057600080fd5b810190808051906020019092919050505092508291508173ffffffffffffffffffffffffffffffffffffffff1663e5fc270e856040518263ffffffff167c010000000000000000000000000000000000000000000000000000000002815260040180828152602001915050600060405180830381600087803b158015610a4557600080fd5b505af1158015610a59573d6000803e3d6000fd5b505050506001860390505b6001808054905003811015610bfe576001808201815481101515610a8457fe5b9060005260206000209060070201600182815481101515610aa157fe5b906000526020600020906007020160008201548160000155600182015481600101556002820154816002019060001916905560038201548160030190600019169055600482015481600401906000191690556005820160009054906101000a900473ffffffffffffffffffffffffffffffffffffffff168160050160006101000a81548173ffffffffffffffffffffffffffffffffffffffff021916908373ffffffffffffffffffffffffffffffffffffffff1602179055506006820160009054906101000a900473ffffffffffffffffffffffffffffffffffffffff168160060160006101000a81548173ffffffffffffffffffffffffffffffffffffffff021916908373ffffffffffffffffffffffffffffffffffffffff1602179055506006820160149054906101000a900460ff168160060160146101000a81548160ff0219169083151502179055509050508080600101915050610a64565b6001805480919060019003610c139190610c99565b50505050505050565b610100604051908101604052806000815260200160008152602001600080191681526020016000801916815260200160008019168152602001600073ffffffffffffffffffffffffffffffffffffffff168152602001600073ffffffffffffffffffffffffffffffffffffffff1681526020016000151581525090565b815481835581811115610cc657600702816007028360005260206000209182019101610cc59190610ccb565b5b505050565b610d7191905b80821115610d6d5760008082016000905560018201600090556002820160009055600382016000905560048201600090556005820160006101000a81549073ffffffffffffffffffffffffffffffffffffffff02191690556006820160006101000a81549073ffffffffffffffffffffffffffffffffffffffff02191690556006820160146101000a81549060ff021916905550600701610cd1565b5090565b905600a165627a7a723058209a4cfea14e4cf6d09c08fade2e1c5870d131d12c31c0cd99fb0ef2edf2f774160029",
  "source": "pragma solidity ^0.4.24;\r\n\r\n// Interface for government's contract to interact with factory contract.\r\ncontract FactoryInterfaceG {\r\n    function getContractAddress(uint _IDType, address _owner) public view returns (address);\r\n}\r\n\r\n// Interface for government's contract to interact with customer's contract.\r\ncontract CustInterfaceG {\r\n    function addVerification(uint _claimNum) public;\r\n}\r\n\r\n/** @title IdentityGovernment\r\n  * @author Jo Moodley\r\n  * @notice Self-sovereign identity demo for funeral insurance\r\n  * @notice Contract for government's identity.\r\n */\r\ncontract IdentityGovernment {\r\n    address private owner; // Government's identifier.\r\n\r\n    // Structure for a claim verification request.\r\n    struct VerificationRequest {\r\n        uint claimNum; // Requestor's claim number.\r\n        uint expiryDate; // Expiry date of claim.\r\n        bytes32 dataIdentifier; // Claim data identifier.\r\n        bytes32 description; // Description of claim.\r\n        bytes32 verifierName; // Name of verifier.\r\n        address verifier; // Address of verifier.\r\n        address requestor; // Address of requestor.\r\n        bool verified; // Whether claim is verified or not.\r\n    }\r\n\r\n    VerificationRequest[] private verifRequests; // Array of requests to verify claims.\r\n    FactoryInterfaceG factoryContract; // Factory contract.\r\n\r\n    // Constructor that only runs once when the contract is created.\r\n    // Set owner of identity and factory contract.\r\n    constructor(address _owner) public {\r\n        owner = _owner;\r\n        factoryContract = FactoryInterfaceG(msg.sender);\r\n    }\r\n\r\n    // Checks that caller is the owner of identity.\r\n    modifier onlyOwner() {\r\n        require(msg.sender == owner);\r\n        _;\r\n    }\r\n\r\n    // Add request from customer to verify a claim.\r\n    function addVerificationRequest(\r\n        address _requestor, uint _claimNum, uint _expiry, bytes32 _dataId, bytes32 _descr,  \r\n        bytes32 _verifierName, address _verifier, bool _verified) public {\r\n        require(_verifier == owner);\r\n        address reqContractAddress = factoryContract.getContractAddress(3, _requestor);\r\n        require(msg.sender == reqContractAddress);\r\n        VerificationRequest memory thisRequest = VerificationRequest(\r\n            _claimNum, _expiry, _dataId, _descr, \r\n            _verifierName, _verifier, _requestor, _verified);\r\n        verifRequests.push(thisRequest);\r\n    }\r\n\r\n    // Verify customer's claim and remove request from array.\r\n    function verifyClaim(uint _requestNum) public onlyOwner {\r\n        require(_requestNum > 0 && _requestNum <= verifRequests.length);\r\n        address thisRequestor = verifRequests[_requestNum - 1].requestor;\r\n        uint thisClaimNum = verifRequests[_requestNum - 1].claimNum;\r\n        address reqContractAddress = factoryContract.getContractAddress(3, thisRequestor);\r\n        CustInterfaceG reqContract = CustInterfaceG(reqContractAddress);\r\n        reqContract.addVerification(thisClaimNum);\r\n        for (uint i = _requestNum - 1; i < verifRequests.length - 1; i++) {\r\n            verifRequests[i] = verifRequests[i + 1];\r\n        }\r\n        verifRequests.length--;\r\n    }\r\n\r\n    // Get the number of requests.\r\n    function getVerifRequestCount() public view onlyOwner returns (uint) {\r\n        return verifRequests.length;\r\n    }\r\n\r\n    // View a request.\r\n    function getVerifRequest(uint _index) public view onlyOwner returns (\r\n        address, uint, bytes32, bytes32, bytes32, address, bool) {\r\n        VerificationRequest memory thisReq = verifRequests[_index];\r\n        return (\r\n            thisReq.requestor, thisReq.expiryDate, thisReq.dataIdentifier, \r\n            thisReq.description, thisReq.verifierName, thisReq.verifier, thisReq.verified);\r\n    }\r\n}",
  "sourcePath": "C:\\Users\\Jo\\Main\\Identity\\contracts\\IdentityGovernment.sol",
  "compiler": {
    "name": "solc",
    "version": "0.4.24+commit.e67f0147.Emscripten.clang"
  },
  "schemaVersion": "2.0.1",
  "updatedAt": "2019-02-10T22:48:17.393Z"
}