{
  "contractName": "IdentityInsurer",
  "abi": [
    {
      "inputs": [
        {
          "name": "_owner",
          "type": "address"
        }
      ],
      "payable": false,
      "stateMutability": "nonpayable",
      "type": "constructor"
    },
    {
      "anonymous": false,
      "inputs": [
        {
          "indexed": false,
          "name": "_dataId",
          "type": "bytes32"
        }
      ],
      "name": "NewClaim",
      "type": "event"
    },
    {
      "constant": false,
      "inputs": [],
      "name": "addCustomer",
      "outputs": [],
      "payable": false,
      "stateMutability": "nonpayable",
      "type": "function"
    },
    {
      "constant": false,
      "inputs": [
        {
          "name": "_dependent",
          "type": "address"
        }
      ],
      "name": "addDependent",
      "outputs": [],
      "payable": false,
      "stateMutability": "nonpayable",
      "type": "function"
    },
    {
      "constant": false,
      "inputs": [
        {
          "name": "_customer",
          "type": "address"
        },
        {
          "name": "_expiry",
          "type": "uint256"
        },
        {
          "name": "_dataId",
          "type": "bytes32"
        },
        {
          "name": "_descr",
          "type": "bytes32"
        },
        {
          "name": "_verifierName",
          "type": "bytes32"
        },
        {
          "name": "_verifier",
          "type": "address"
        },
        {
          "name": "_verified",
          "type": "bool"
        }
      ],
      "name": "addSharedClaim",
      "outputs": [],
      "payable": false,
      "stateMutability": "nonpayable",
      "type": "function"
    },
    {
      "constant": false,
      "inputs": [
        {
          "name": "_plan",
          "type": "uint256"
        },
        {
          "name": "_customerNum",
          "type": "uint256"
        },
        {
          "name": "_premium",
          "type": "uint256"
        },
        {
          "name": "_cover",
          "type": "uint256"
        },
        {
          "name": "_sundries",
          "type": "uint256"
        },
        {
          "name": "_legal",
          "type": "bytes32"
        },
        {
          "name": "_waitPeriodDays",
          "type": "uint256"
        },
        {
          "name": "_paymentHoliday",
          "type": "bytes32"
        },
        {
          "name": "_premiumPayback",
          "type": "bytes32"
        }
      ],
      "name": "createFuneralPlan",
      "outputs": [],
      "payable": false,
      "stateMutability": "nonpayable",
      "type": "function"
    },
    {
      "constant": true,
      "inputs": [],
      "name": "getCustomerCount",
      "outputs": [
        {
          "name": "",
          "type": "uint256"
        }
      ],
      "payable": false,
      "stateMutability": "view",
      "type": "function"
    },
    {
      "constant": true,
      "inputs": [
        {
          "name": "_index",
          "type": "uint256"
        }
      ],
      "name": "getCustomer",
      "outputs": [
        {
          "name": "",
          "type": "address"
        },
        {
          "name": "",
          "type": "address"
        }
      ],
      "payable": false,
      "stateMutability": "view",
      "type": "function"
    },
    {
      "constant": true,
      "inputs": [
        {
          "name": "_index",
          "type": "uint256"
        }
      ],
      "name": "getCustomerClaimCount",
      "outputs": [
        {
          "name": "",
          "type": "uint256"
        }
      ],
      "payable": false,
      "stateMutability": "view",
      "type": "function"
    },
    {
      "constant": true,
      "inputs": [
        {
          "name": "_indexA",
          "type": "uint256"
        },
        {
          "name": "_indexB",
          "type": "uint256"
        }
      ],
      "name": "getCustomerClaim",
      "outputs": [
        {
          "name": "",
          "type": "uint256"
        },
        {
          "name": "",
          "type": "bytes32"
        },
        {
          "name": "",
          "type": "bytes32"
        },
        {
          "name": "",
          "type": "bytes32"
        },
        {
          "name": "",
          "type": "address"
        },
        {
          "name": "",
          "type": "bool"
        }
      ],
      "payable": false,
      "stateMutability": "view",
      "type": "function"
    }
  ],
  "bytecode": "0x6080604052600060015534801561001557600080fd5b5060405160208061149283398101806040528101908080519060200190929190505050806000806101000a81548173ffffffffffffffffffffffffffffffffffffffff021916908373ffffffffffffffffffffffffffffffffffffffff16021790555033600460006101000a81548173ffffffffffffffffffffffffffffffffffffffff021916908373ffffffffffffffffffffffffffffffffffffffff160217905550506113c9806100c96000396000f30060806040526004361061008e576000357c0100000000000000000000000000000000000000000000000000000000900463ffffffff1680632027d746146100935780634576d9e2146100be5780637ad8447514610174578063ba1d6b891461018b578063c3bbcbd01461022e578063d5f74018146102b7578063ddc500e6146102fa578063eb876f271461033b575b600080fd5b34801561009f57600080fd5b506100a86103db565b6040518082815260200191505060405180910390f35b3480156100ca57600080fd5b506100f36004803603810190808035906020019092919080359060200190929190505050610443565b604051808781526020018660001916600019168152602001856000191660001916815260200184600019166000191681526020018373ffffffffffffffffffffffffffffffffffffffff1673ffffffffffffffffffffffffffffffffffffffff16815260200182151515158152602001965050505050505060405180910390f35b34801561018057600080fd5b506101896105de565b005b34801561019757600080fd5b5061022c600480360381019080803573ffffffffffffffffffffffffffffffffffffffff16906020019092919080359060200190929190803560001916906020019092919080356000191690602001909291908035600019169060200190929190803573ffffffffffffffffffffffffffffffffffffffff1690602001909291908035151590602001909291905050506106f3565b005b34801561023a57600080fd5b506102b56004803603810190808035906020019092919080359060200190929190803590602001909291908035906020019092919080359060200190929190803560001916906020019092919080359060200190929190803560001916906020019092919080356000191690602001909291905050506109d0565b005b3480156102c357600080fd5b506102f8600480360381019080803573ffffffffffffffffffffffffffffffffffffffff169060200190929190505050610bc5565b005b34801561030657600080fd5b5061032560048036038101908080359060200190929190505050610c6f565b6040518082815260200191505060405180910390f35b34801561034757600080fd5b5061036660048036038101908080359060200190929190505050610cf7565b604051808373ffffffffffffffffffffffffffffffffffffffff1673ffffffffffffffffffffffffffffffffffffffff1681526020018273ffffffffffffffffffffffffffffffffffffffff1673ffffffffffffffffffffffffffffffffffffffff1681526020019250505060405180910390f35b60008060009054906101000a900473ffffffffffffffffffffffffffffffffffffffff1673ffffffffffffffffffffffffffffffffffffffff163373ffffffffffffffffffffffffffffffffffffffff1614151561043857600080fd5b600280549050905090565b6000806000806000806104546111f8565b6000809054906101000a900473ffffffffffffffffffffffffffffffffffffffff1673ffffffffffffffffffffffffffffffffffffffff163373ffffffffffffffffffffffffffffffffffffffff161415156104af57600080fd5b6002898154811015156104be57fe5b9060005260206000209060030201600201888154811015156104dc57fe5b906000526020600020906005020160c06040519081016040529081600082015481526020016001820154600019166000191681526020016002820154600019166000191681526020016003820154600019166000191681526020016004820160009054906101000a900473ffffffffffffffffffffffffffffffffffffffff1673ffffffffffffffffffffffffffffffffffffffff1673ffffffffffffffffffffffffffffffffffffffff1681526020016004820160149054906101000a900460ff1615151515815250509050806000015181602001518260400151836060015184608001518560a00151965096509650965096509650509295509295509295565b6000600360003373ffffffffffffffffffffffffffffffffffffffff1673ffffffffffffffffffffffffffffffffffffffff1681526020019081526020016000205414151561062c57600080fd5b600280548091906001016106409190611250565b5033600260016002805490500381548110151561065957fe5b906000526020600020906003020160000160006101000a81548173ffffffffffffffffffffffffffffffffffffffff021916908373ffffffffffffffffffffffffffffffffffffffff160217905550600280549050600360003373ffffffffffffffffffffffffffffffffffffffff1673ffffffffffffffffffffffffffffffffffffffff16815260200190815260200160002081905550565b6000806106fe6111f8565b600460009054906101000a900473ffffffffffffffffffffffffffffffffffffffff1673ffffffffffffffffffffffffffffffffffffffff1663618a832f60038c6040518363ffffffff167c0100000000000000000000000000000000000000000000000000000000028152600401808381526020018273ffffffffffffffffffffffffffffffffffffffff1673ffffffffffffffffffffffffffffffffffffffff16815260200192505050602060405180830381600087803b1580156107c457600080fd5b505af11580156107d8573d6000803e3d6000fd5b505050506040513d60208110156107ee57600080fd5b810190808051906020019092919050505092508273ffffffffffffffffffffffffffffffffffffffff163373ffffffffffffffffffffffffffffffffffffffff1614151561083b57600080fd5b600360008b73ffffffffffffffffffffffffffffffffffffffff1673ffffffffffffffffffffffffffffffffffffffff16815260200190815260200160002054915060c0604051908101604052808a81526020018960001916815260200188600019168152602001876000191681526020018673ffffffffffffffffffffffffffffffffffffffff16815260200185151581525090506002600183038154811015156108e357fe5b906000526020600020906003020160020181908060018154018082558091505090600182039060005260206000209060050201600090919290919091506000820151816000015560208201518160010190600019169055604082015181600201906000191690556060820151816003019060001916905560808201518160040160006101000a81548173ffffffffffffffffffffffffffffffffffffffff021916908373ffffffffffffffffffffffffffffffffffffffff16021790555060a08201518160040160146101000a81548160ff02191690831515021790555050505050505050505050505050565b60008060009054906101000a900473ffffffffffffffffffffffffffffffffffffffff1673ffffffffffffffffffffffffffffffffffffffff163373ffffffffffffffffffffffffffffffffffffffff16141515610a2d57600080fd5b6001600081548092919060010191905055508787878787878760015460405160200180898152602001888152602001878152602001866000191660001916815260200185815260200184600019166000191681526020018360001916600019168152602001828152602001985050505050505050506040516020818303038152906040526040518082805190602001908083835b602083101515610ae65780518252602082019150602081019050602083039250610ac1565b6001836020036101000a0380198251168184511680821785525050505050509050019150506040518091039020905060028a1415610b4e57610b4989827f46616d696c792046756e6572616c20506c616e00000000000000000000000000610de0565b610b7a565b610b7989827f53696e676c652046756e6572616c20506c616e00000000000000000000000000610de0565b5b7f2a2af4037a63f04bdd8515173da151cfc675f20455750107700eb1605ea16e808160405180826000191660001916815260200191505060405180910390a150505050505050505050565b6000600360003373ffffffffffffffffffffffffffffffffffffffff1673ffffffffffffffffffffffffffffffffffffffff16815260200190815260200160002054905081600260018303815481101515610c1c57fe5b906000526020600020906003020160010160006101000a81548173ffffffffffffffffffffffffffffffffffffffff021916908373ffffffffffffffffffffffffffffffffffffffff1602179055505050565b60008060009054906101000a900473ffffffffffffffffffffffffffffffffffffffff1673ffffffffffffffffffffffffffffffffffffffff163373ffffffffffffffffffffffffffffffffffffffff16141515610ccc57600080fd5b600282815481101515610cdb57fe5b9060005260206000209060030201600201805490509050919050565b6000806000809054906101000a900473ffffffffffffffffffffffffffffffffffffffff1673ffffffffffffffffffffffffffffffffffffffff163373ffffffffffffffffffffffffffffffffffffffff16141515610d5557600080fd5b600283815481101515610d6457fe5b906000526020600020906003020160000160009054906101000a900473ffffffffffffffffffffffffffffffffffffffff16600284815481101515610da557fe5b906000526020600020906003020160010160009054906101000a900473ffffffffffffffffffffffffffffffffffffffff1691509150915091565b610de86111f8565b60008060c0604051908101604052806000815260200186600019168152602001856000191681526020017f496e7375726572000000000000000000000000000000000000000000000000006000191681526020016000809054906101000a900473ffffffffffffffffffffffffffffffffffffffff1673ffffffffffffffffffffffffffffffffffffffff168152602001600115158152509250600260018703815481101515610e9457fe5b906000526020600020906003020160020183908060018154018082558091505090600182039060005260206000209060050201600090919290919091506000820151816000015560208201518160010190600019169055604082015181600201906000191690556060820151816003019060001916905560808201518160040160006101000a81548173ffffffffffffffffffffffffffffffffffffffff021916908373ffffffffffffffffffffffffffffffffffffffff16021790555060a08201518160040160146101000a81548160ff021916908315150217905550505050600460009054906101000a900473ffffffffffffffffffffffffffffffffffffffff1673ffffffffffffffffffffffffffffffffffffffff1663618a832f6003600260018a03815481101515610fc757fe5b906000526020600020906003020160000160009054906101000a900473ffffffffffffffffffffffffffffffffffffffff166040518363ffffffff167c0100000000000000000000000000000000000000000000000000000000028152600401808381526020018273ffffffffffffffffffffffffffffffffffffffff1673ffffffffffffffffffffffffffffffffffffffff16815260200192505050602060405180830381600087803b15801561107e57600080fd5b505af1158015611092573d6000803e3d6000fd5b505050506040513d60208110156110a857600080fd5b810190808051906020019092919050505091508190508073ffffffffffffffffffffffffffffffffffffffff1663603836f0600087876000809054906101000a900473ffffffffffffffffffffffffffffffffffffffff1660016040518663ffffffff167c01000000000000000000000000000000000000000000000000000000000281526004018086815260200185600019166000191681526020018460001916600019168152602001807f496e7375726572000000000000000000000000000000000000000000000000008152506020018373ffffffffffffffffffffffffffffffffffffffff1673ffffffffffffffffffffffffffffffffffffffff1681526020018215151515815260200195505050505050600060405180830381600087803b1580156111d857600080fd5b505af11580156111ec573d6000803e3d6000fd5b50505050505050505050565b60c06040519081016040528060008152602001600080191681526020016000801916815260200160008019168152602001600073ffffffffffffffffffffffffffffffffffffffff1681526020016000151581525090565b81548183558181111561127d5760030281600302836000526020600020918201910161127c9190611282565b5b505050565b6112fc91905b808211156112f857600080820160006101000a81549073ffffffffffffffffffffffffffffffffffffffff02191690556001820160006101000a81549073ffffffffffffffffffffffffffffffffffffffff02191690556002820160006112ef91906112ff565b50600301611288565b5090565b90565b50805460008255600502906000526020600020908101906113209190611323565b50565b61139a91905b80821115611396576000808201600090556001820160009055600282016000905560038201600090556004820160006101000a81549073ffffffffffffffffffffffffffffffffffffffff02191690556004820160146101000a81549060ff021916905550600501611329565b5090565b905600a165627a7a723058205df6640b19bb053474996340f954824dcc74a6dde5051bd9435331c093b681930029",
  "source": "pragma solidity ^0.4.24;\r\n\r\n// Interface for insurer's contract to interact with factory contract.\r\ncontract FactoryInterfaceC {\r\n    function getContractAddress(uint _IDType, address _owner) public view returns (address);\r\n}\r\n\r\n// Interface for insurer's contract to interact with customer's contract.\r\ncontract CustInterface {\r\n    function receiveClaim(\r\n        uint _expiry, bytes32 _dataId, bytes32 _descr, bytes32 _verifierName, \r\n        address _verifier, bool _verified) public;\r\n}\r\n\r\n/** @title IdentityInsurer\r\n  * @author Jo Moodley\r\n  * @notice Self-sovereign identity demo for funeral insurance\r\n  * @notice Contract for insurer's identity.\r\n */\r\ncontract IdentityInsurer {\r\n    address private owner; // Insurer's identifier.\r\n    uint private claimNonce = 0; // Used in hashing of claim data.\r\n\r\n    // Structure for a claim.\r\n    struct Claim {\r\n        uint expiryDate; // Expiry date of claim.\r\n        bytes32 dataIdentifier; // Claim data identifier.\r\n        bytes32 description; // Description of claim.\r\n        bytes32 verifierName; // Name of verifier.\r\n        address verifier; // Address of verifier.\r\n        bool verified; // Whether claim is verified or not.\r\n    }\r\n\r\n    // Structure for a customer.\r\n    struct Customer {\r\n        address identifier; // Address of customer.\r\n        address dependent; // Address of dependent.\r\n        Claim[] sharedClaims; // Array of claims shared with insurer.\r\n    }\r\n\r\n    Customer[] private customers; // Array of customers.\r\n    mapping(address => uint) private customerIdToNum; // Maps customer's address to customer number.\r\n    FactoryInterfaceC factoryContract; // Factory contract.\r\n\r\n    event NewClaim(bytes32 _dataId); // To return data identifier when claim is created.\r\n\r\n    // Constructor that only runs once when the contract is created.\r\n    // Set owner of identity and factory contract.\r\n    constructor(address _owner) public {\r\n        owner = _owner;\r\n        factoryContract = FactoryInterfaceC(msg.sender);\r\n    }\r\n\r\n    // Checks that caller is the owner of identity.\r\n    modifier onlyOwner() {\r\n        require(msg.sender == owner);\r\n        _;\r\n    }\r\n\r\n    // Add customer.\r\n    function addCustomer() public {\r\n        require(customerIdToNum[msg.sender] == 0);\r\n        customers.length++;\r\n        customers[customers.length - 1].identifier = msg.sender;\r\n        customerIdToNum[msg.sender] = customers.length;\r\n    }\r\n\r\n    // Add dependent to customer.\r\n    function addDependent(address _dependent) public {\r\n        uint num = customerIdToNum[msg.sender];\r\n        customers[num - 1].dependent = _dependent;\r\n    }\r\n\r\n    // Add shared claim from customer.\r\n    function addSharedClaim(\r\n        address _customer, uint _expiry, bytes32 _dataId, bytes32 _descr,  \r\n        bytes32 _verifierName, address _verifier, bool _verified) public {\r\n        address custContractAddress = factoryContract.getContractAddress(3, _customer);\r\n        require(msg.sender == custContractAddress);\r\n        uint num = customerIdToNum[_customer];\r\n        Claim memory thisClaim = Claim(_expiry, _dataId, _descr, _verifierName, _verifier, _verified);\r\n        customers[num - 1].sharedClaims.push(thisClaim);\r\n    }\r\n\r\n    // Add new claim for customer to array of shared claims and send to customer.\r\n    function _addClaim(uint _customerNum, bytes32 _dataId, bytes32 _descr) private {\r\n        Claim memory thisClaim = Claim(0, _dataId, _descr, \"Insurer\", owner, true);\r\n        customers[_customerNum - 1].sharedClaims.push(thisClaim);\r\n        address custContractAddress = factoryContract.getContractAddress(3, customers[_customerNum - 1].identifier);\r\n        CustInterface custContract = CustInterface(custContractAddress);\r\n        custContract.receiveClaim(0, _dataId, _descr, \"Insurer\", owner, true);\r\n    }\r\n\r\n    // Create claim for proof of funeral cover.\r\n    function createFuneralPlan(\r\n        uint _plan, uint _customerNum, uint _premium, uint _cover, uint _sundries, bytes32 _legal, \r\n        uint _waitPeriodDays, bytes32 _paymentHoliday, bytes32 _premiumPayback) public onlyOwner {\r\n        claimNonce++;\r\n        bytes32 dataId = keccak256(\r\n            abi.encodePacked(_premium, _cover, _sundries, _legal, _waitPeriodDays, \r\n            _paymentHoliday, _premiumPayback, claimNonce));\r\n        if (_plan == 2) {\r\n            _addClaim(_customerNum, dataId, \"Family Funeral Plan\");\r\n        } else {\r\n            _addClaim(_customerNum, dataId, \"Single Funeral Plan\");\r\n        }\r\n        emit NewClaim(dataId);\r\n    }\r\n\r\n    // Get the number of customers.\r\n    function getCustomerCount() public view onlyOwner returns (uint) {\r\n        return customers.length;\r\n    }\r\n\r\n    // View a customer's information.\r\n    function getCustomer(uint _index) public view onlyOwner returns (address, address) {\r\n        return (customers[_index].identifier, customers[_index].dependent);\r\n    }\r\n\r\n    // Get the number of shared claims for a customer.\r\n    function getCustomerClaimCount(uint _index) public view onlyOwner returns (uint) {\r\n        return customers[_index].sharedClaims.length;\r\n    }\r\n\r\n    // View a shared claim for a customer.\r\n    function getCustomerClaim(uint _indexA, uint _indexB) public view onlyOwner returns (\r\n        uint, bytes32, bytes32, bytes32, address, bool) {\r\n        Claim memory thisClaim = customers[_indexA].sharedClaims[_indexB];\r\n        return (\r\n            thisClaim.expiryDate, thisClaim.dataIdentifier, thisClaim.description, \r\n            thisClaim.verifierName, thisClaim.verifier, thisClaim.verified);\r\n    }\r\n}\r\n",
  "sourcePath": "C:\\Users\\Jo\\Main\\Identity\\contracts\\IdentityInsurer.sol",
  "compiler": {
    "name": "solc",
    "version": "0.4.24+commit.e67f0147.Emscripten.clang"
  },
  "schemaVersion": "2.0.1",
  "updatedAt": "2019-02-10T22:48:17.433Z"
}