{
  "contractName": "IdentityCustomer",
  "abi": [
    {
      "inputs": [
        {
          "name": "_owner",
          "type": "address"
        }
      ],
      "payable": false,
      "stateMutability": "nonpayable",
      "type": "constructor"
    },
    {
      "anonymous": false,
      "inputs": [
        {
          "indexed": false,
          "name": "_dataId",
          "type": "bytes32"
        }
      ],
      "name": "NewClaim",
      "type": "event"
    },
    {
      "constant": false,
      "inputs": [
        {
          "name": "_idnumber",
          "type": "uint256"
        },
        {
          "name": "_name",
          "type": "bytes32"
        },
        {
          "name": "_dob",
          "type": "uint256"
        }
      ],
      "name": "createClaimID",
      "outputs": [],
      "payable": false,
      "stateMutability": "nonpayable",
      "type": "function"
    },
    {
      "constant": false,
      "inputs": [
        {
          "name": "_line1",
          "type": "bytes32"
        },
        {
          "name": "_line2",
          "type": "bytes32"
        },
        {
          "name": "_town",
          "type": "bytes32"
        },
        {
          "name": "_country",
          "type": "bytes32"
        },
        {
          "name": "_code",
          "type": "uint256"
        },
        {
          "name": "_expiry",
          "type": "uint256"
        }
      ],
      "name": "createClaimAddress",
      "outputs": [],
      "payable": false,
      "stateMutability": "nonpayable",
      "type": "function"
    },
    {
      "constant": false,
      "inputs": [
        {
          "name": "_dob",
          "type": "uint256"
        }
      ],
      "name": "createClaimAge",
      "outputs": [],
      "payable": false,
      "stateMutability": "nonpayable",
      "type": "function"
    },
    {
      "constant": false,
      "inputs": [
        {
          "name": "_claimNum",
          "type": "uint256"
        }
      ],
      "name": "addVerification",
      "outputs": [],
      "payable": false,
      "stateMutability": "nonpayable",
      "type": "function"
    },
    {
      "constant": false,
      "inputs": [
        {
          "name": "_claimNum",
          "type": "uint256"
        }
      ],
      "name": "shareClaim",
      "outputs": [],
      "payable": false,
      "stateMutability": "nonpayable",
      "type": "function"
    },
    {
      "constant": false,
      "inputs": [
        {
          "name": "_expiry",
          "type": "uint256"
        },
        {
          "name": "_dataId",
          "type": "bytes32"
        },
        {
          "name": "_descr",
          "type": "bytes32"
        },
        {
          "name": "_verifierName",
          "type": "bytes32"
        },
        {
          "name": "_verifier",
          "type": "address"
        },
        {
          "name": "_verified",
          "type": "bool"
        }
      ],
      "name": "receiveClaim",
      "outputs": [],
      "payable": false,
      "stateMutability": "nonpayable",
      "type": "function"
    },
    {
      "constant": true,
      "inputs": [],
      "name": "getClaimCount",
      "outputs": [
        {
          "name": "",
          "type": "uint256"
        }
      ],
      "payable": false,
      "stateMutability": "view",
      "type": "function"
    },
    {
      "constant": true,
      "inputs": [
        {
          "name": "_index",
          "type": "uint256"
        }
      ],
      "name": "getClaim",
      "outputs": [
        {
          "name": "",
          "type": "uint256"
        },
        {
          "name": "",
          "type": "bytes32"
        },
        {
          "name": "",
          "type": "bytes32"
        },
        {
          "name": "",
          "type": "bytes32"
        },
        {
          "name": "",
          "type": "address"
        },
        {
          "name": "",
          "type": "bool"
        }
      ],
      "payable": false,
      "stateMutability": "view",
      "type": "function"
    }
  ],
  "bytecode": "0x6080604052600060015534801561001557600080fd5b5060405160208061196d83398101806040528101908080519060200190929190505050806000806101000a81548173ffffffffffffffffffffffffffffffffffffffff021916908373ffffffffffffffffffffffffffffffffffffffff16021790555033600360006101000a81548173ffffffffffffffffffffffffffffffffffffffff021916908373ffffffffffffffffffffffffffffffffffffffff160217905550506118a4806100c96000396000f30060806040526004361061008e576000357c0100000000000000000000000000000000000000000000000000000000900463ffffffff16806325935ccc1461009357806327199beb146100c057806327fe44d6146101055780635aef244714610132578063603836f0146101de578063a9c9897b14610261578063ba4611d9146102d0578063e5fc270e146102fb575b600080fd5b34801561009f57600080fd5b506100be60048036038101908080359060200190929190505050610328565b005b3480156100cc57600080fd5b5061010360048036038101908080359060200190929190803560001916906020019092919080359060200190929190505050610506565b005b34801561011157600080fd5b50610130600480360381019080803590602001909291905050506106fe565b005b34801561013e57600080fd5b5061015d60048036038101908080359060200190929190505050610ab4565b604051808781526020018660001916600019168152602001856000191660001916815260200184600019166000191681526020018373ffffffffffffffffffffffffffffffffffffffff1673ffffffffffffffffffffffffffffffffffffffff16815260200182151515158152602001965050505050505060405180910390f35b3480156101ea57600080fd5b5061025f60048036038101908080359060200190929190803560001916906020019092919080356000191690602001909291908035600019169060200190929190803573ffffffffffffffffffffffffffffffffffffffff169060200190929190803515159060200190929190505050610c20565b005b34801561026d57600080fd5b506102ce60048036038101908080356000191690602001909291908035600019169060200190929190803560001916906020019092919080356000191690602001909291908035906020019092919080359060200190929190505050610e98565b005b3480156102dc57600080fd5b506102e56110ba565b6040518082815260200191505060405180910390f35b34801561030757600080fd5b5061032660048036038101908080359060200190929190505050611122565b005b60008060009054906101000a900473ffffffffffffffffffffffffffffffffffffffff1673ffffffffffffffffffffffffffffffffffffffff163373ffffffffffffffffffffffffffffffffffffffff1614151561038557600080fd5b600160008154809291906001019190505550816000809054906101000a900473ffffffffffffffffffffffffffffffffffffffff16600154604051602001808481526020018373ffffffffffffffffffffffffffffffffffffffff1673ffffffffffffffffffffffffffffffffffffffff166c0100000000000000000000000002815260140182815260200193505050506040516020818303038152906040526040518082805190602001908083835b60208310151561045a5780518252602082019150602081019050602083039250610435565b6001836020036101000a038019825116818451168082178552505050505050905001915050604051809103902090506104b5817f416765206f76657220313820796561727300000000000000000000000000000060006112a2565b6104c36002805490506114bd565b7f2a2af4037a63f04bdd8515173da151cfc675f20455750107700eb1605ea16e808160405180826000191660001916815260200191505060405180910390a15050565b60008060009054906101000a900473ffffffffffffffffffffffffffffffffffffffff1673ffffffffffffffffffffffffffffffffffffffff163373ffffffffffffffffffffffffffffffffffffffff1614151561056357600080fd5b6001600081548092919060010191905055508383836000809054906101000a900473ffffffffffffffffffffffffffffffffffffffff166001546040516020018086815260200185600019166000191681526020018481526020018373ffffffffffffffffffffffffffffffffffffffff1673ffffffffffffffffffffffffffffffffffffffff166c01000000000000000000000000028152601401828152602001955050505050506040516020818303038152906040526040518082805190602001908083835b602083101515610650578051825260208201915060208101905060208303925061062b565b6001836020036101000a038019825116818451168082178552505050505050905001915050604051809103902090506106ab817f536f757468204166726963616e206964656e746974790000000000000000000060006112a2565b6106b96002805490506114bd565b7f2a2af4037a63f04bdd8515173da151cfc675f20455750107700eb1605ea16e808160405180826000191660001916815260200191505060405180910390a150505050565b610706611820565b6000806000809054906101000a900473ffffffffffffffffffffffffffffffffffffffff1673ffffffffffffffffffffffffffffffffffffffff163373ffffffffffffffffffffffffffffffffffffffff1614151561076457600080fd5b60026001850381548110151561077657fe5b906000526020600020906005020160c06040519081016040529081600082015481526020016001820154600019166000191681526020016002820154600019166000191681526020016003820154600019166000191681526020016004820160009054906101000a900473ffffffffffffffffffffffffffffffffffffffff1673ffffffffffffffffffffffffffffffffffffffff1673ffffffffffffffffffffffffffffffffffffffff1681526020016004820160149054906101000a900460ff1615151515815250509250600360009054906101000a900473ffffffffffffffffffffffffffffffffffffffff1673ffffffffffffffffffffffffffffffffffffffff1663618a832f600260006040518363ffffffff167c0100000000000000000000000000000000000000000000000000000000028152600401808381526020018273ffffffffffffffffffffffffffffffffffffffff1673ffffffffffffffffffffffffffffffffffffffff16815260200192505050602060405180830381600087803b15801561090a57600080fd5b505af115801561091e573d6000803e3d6000fd5b505050506040513d602081101561093457600080fd5b810190808051906020019092919050505091508190508073ffffffffffffffffffffffffffffffffffffffff1663ba1d6b896000809054906101000a900473ffffffffffffffffffffffffffffffffffffffff16856000015186602001518760400151886060015189608001518a60a001516040518863ffffffff167c0100000000000000000000000000000000000000000000000000000000028152600401808873ffffffffffffffffffffffffffffffffffffffff1673ffffffffffffffffffffffffffffffffffffffff1681526020018781526020018660001916600019168152602001856000191660001916815260200184600019166000191681526020018373ffffffffffffffffffffffffffffffffffffffff1673ffffffffffffffffffffffffffffffffffffffff16815260200182151515158152602001975050505050505050600060405180830381600087803b158015610a9657600080fd5b505af1158015610aaa573d6000803e3d6000fd5b5050505050505050565b6000806000806000806000809054906101000a900473ffffffffffffffffffffffffffffffffffffffff1673ffffffffffffffffffffffffffffffffffffffff163373ffffffffffffffffffffffffffffffffffffffff16141515610b1857600080fd5b600287815481101515610b2757fe5b906000526020600020906005020160000154600288815481101515610b4857fe5b906000526020600020906005020160010154600289815481101515610b6957fe5b90600052602060002090600502016002015460028a815481101515610b8a57fe5b90600052602060002090600502016003015460028b815481101515610bab57fe5b906000526020600020906005020160040160009054906101000a900473ffffffffffffffffffffffffffffffffffffffff1660028c815481101515610bec57fe5b906000526020600020906005020160040160149054906101000a900460ff1695509550955095509550955091939550919395565b6000610c2a611820565b600360009054906101000a900473ffffffffffffffffffffffffffffffffffffffff1673ffffffffffffffffffffffffffffffffffffffff1663618a832f600260006040518363ffffffff167c0100000000000000000000000000000000000000000000000000000000028152600401808381526020018273ffffffffffffffffffffffffffffffffffffffff1673ffffffffffffffffffffffffffffffffffffffff16815260200192505050602060405180830381600087803b158015610cf157600080fd5b505af1158015610d05573d6000803e3d6000fd5b505050506040513d6020811015610d1b57600080fd5b810190808051906020019092919050505091508173ffffffffffffffffffffffffffffffffffffffff163373ffffffffffffffffffffffffffffffffffffffff16141515610d6857600080fd5b60c0604051908101604052808981526020018860001916815260200187600019168152602001866000191681526020018573ffffffffffffffffffffffffffffffffffffffff1681526020018415158152509050600281908060018154018082558091505090600182039060005260206000209060050201600090919290919091506000820151816000015560208201518160010190600019169055604082015181600201906000191690556060820151816003019060001916905560808201518160040160006101000a81548173ffffffffffffffffffffffffffffffffffffffff021916908373ffffffffffffffffffffffffffffffffffffffff16021790555060a08201518160040160146101000a81548160ff0219169083151502179055505050505050505050505050565b60008060009054906101000a900473ffffffffffffffffffffffffffffffffffffffff1673ffffffffffffffffffffffffffffffffffffffff163373ffffffffffffffffffffffffffffffffffffffff16141515610ef557600080fd5b60016000815480929190600101919050555086868686866000809054906101000a900473ffffffffffffffffffffffffffffffffffffffff166001546040516020018088600019166000191681526020018760001916600019168152602001866000191660001916815260200185600019166000191681526020018481526020018373ffffffffffffffffffffffffffffffffffffffff1673ffffffffffffffffffffffffffffffffffffffff166c010000000000000000000000000281526014018281526020019750505050505050506040516020818303038152906040526040518082805190602001908083835b60208310151561100a5780518252602082019150602081019050602083039250610fe5565b6001836020036101000a03801982511681845116808217855250505050505090500191505060405180910390209050611064817f5265736964656e7469616c206164647265737300000000000000000000000000846112a2565b6110726002805490506114bd565b7f2a2af4037a63f04bdd8515173da151cfc675f20455750107700eb1605ea16e808160405180826000191660001916815260200191505060405180910390a150505050505050565b60008060009054906101000a900473ffffffffffffffffffffffffffffffffffffffff1673ffffffffffffffffffffffffffffffffffffffff163373ffffffffffffffffffffffffffffffffffffffff1614151561111757600080fd5b600280549050905090565b6000600360009054906101000a900473ffffffffffffffffffffffffffffffffffffffff1673ffffffffffffffffffffffffffffffffffffffff1663618a832f600160006040518363ffffffff167c0100000000000000000000000000000000000000000000000000000000028152600401808381526020018273ffffffffffffffffffffffffffffffffffffffff1673ffffffffffffffffffffffffffffffffffffffff16815260200192505050602060405180830381600087803b1580156111eb57600080fd5b505af11580156111ff573d6000803e3d6000fd5b505050506040513d602081101561121557600080fd5b810190808051906020019092919050505090508073ffffffffffffffffffffffffffffffffffffffff163373ffffffffffffffffffffffffffffffffffffffff1614151561126257600080fd5b600160026001840381548110151561127657fe5b906000526020600020906005020160040160146101000a81548160ff0219169083151502179055505050565b60006112ac611820565b600360009054906101000a900473ffffffffffffffffffffffffffffffffffffffff1673ffffffffffffffffffffffffffffffffffffffff1663ef4a63b86040518163ffffffff167c0100000000000000000000000000000000000000000000000000000000028152600401602060405180830381600087803b15801561133257600080fd5b505af1158015611346573d6000803e3d6000fd5b505050506040513d602081101561135c57600080fd5b8101908080519060200190929190505050915060c06040519081016040528084815260200186600019168152602001856000191681526020017f534120476f7665726e6d656e74000000000000000000000000000000000000006000191681526020018373ffffffffffffffffffffffffffffffffffffffff168152602001600015158152509050600281908060018154018082558091505090600182039060005260206000209060050201600090919290919091506000820151816000015560208201518160010190600019169055604082015181600201906000191690556060820151816003019060001916905560808201518160040160006101000a81548173ffffffffffffffffffffffffffffffffffffffff021916908373ffffffffffffffffffffffffffffffffffffffff16021790555060a08201518160040160146101000a81548160ff0219169083151502179055505050505050505050565b6114c5611820565b6000806002600185038154811015156114da57fe5b906000526020600020906005020160c06040519081016040529081600082015481526020016001820154600019166000191681526020016002820154600019166000191681526020016003820154600019166000191681526020016004820160009054906101000a900473ffffffffffffffffffffffffffffffffffffffff1673ffffffffffffffffffffffffffffffffffffffff1673ffffffffffffffffffffffffffffffffffffffff1681526020016004820160149054906101000a900460ff1615151515815250509250600360009054906101000a900473ffffffffffffffffffffffffffffffffffffffff1673ffffffffffffffffffffffffffffffffffffffff1663618a832f600160006040518363ffffffff167c0100000000000000000000000000000000000000000000000000000000028152600401808381526020018273ffffffffffffffffffffffffffffffffffffffff1673ffffffffffffffffffffffffffffffffffffffff16815260200192505050602060405180830381600087803b15801561166e57600080fd5b505af1158015611682573d6000803e3d6000fd5b505050506040513d602081101561169857600080fd5b810190808051906020019092919050505091508190508073ffffffffffffffffffffffffffffffffffffffff1663a03100fe6000809054906101000a900473ffffffffffffffffffffffffffffffffffffffff168686600001518760200151886040015189606001518a608001518b60a001516040518963ffffffff167c0100000000000000000000000000000000000000000000000000000000028152600401808973ffffffffffffffffffffffffffffffffffffffff1673ffffffffffffffffffffffffffffffffffffffff1681526020018881526020018781526020018660001916600019168152602001856000191660001916815260200184600019166000191681526020018373ffffffffffffffffffffffffffffffffffffffff1673ffffffffffffffffffffffffffffffffffffffff1681526020018215151515815260200198505050505050505050600060405180830381600087803b15801561180257600080fd5b505af1158015611816573d6000803e3d6000fd5b5050505050505050565b60c06040519081016040528060008152602001600080191681526020016000801916815260200160008019168152602001600073ffffffffffffffffffffffffffffffffffffffff16815260200160001515815250905600a165627a7a72305820a60d47b808961386c1bff4164f6787bdafeda2aa1172df77e3d3c38a7c3c051b0029",
  "source": "pragma solidity ^0.4.24;\r\n\r\n// Interface for customer's contract to interact with factory contract.\r\ncontract FactoryInterface {\r\n    function getGovAddress() public view returns (address);\r\n    function getContractAddress(uint _IDType, address _owner) public view returns (address);\r\n}\r\n\r\n// Interface for customer's contract to interact with government's contract.\r\ncontract GovInterface {\r\n    function addVerificationRequest(\r\n        address _requestor, uint _claimNum, uint _expiry, bytes32 _dataId, bytes32 _descr,  \r\n        bytes32 _verifierName, address _verifier, bool _verified) public;\r\n}\r\n\r\n// Interface for customer's contract to interact with insurer's contract.\r\ncontract CorpInterface {\r\n    function addSharedClaim(\r\n        address _customer, uint _expiry, bytes32 _dataId, bytes32 _descr,  \r\n        bytes32 _verifierName, address _verifier, bool _verified) public;\r\n}\r\n\r\n/** @title IdentityCustomer\r\n  * @author Jo Moodley\r\n  * @notice Self-sovereign identity demo for funeral insurance\r\n  * @notice Contract for identities for customer and customer's relative.\r\n */\r\ncontract IdentityCustomer {\r\n    address private owner; // Customer's identifier.\r\n    uint private claimNonce = 0; // Used in hashing of claim data.\r\n\r\n    // Structure for a claim.\r\n    struct Claim {\r\n        uint expiryDate; // Expiry date of claim.\r\n        bytes32 dataIdentifier; // Claim data identifier.\r\n        bytes32 description; // Description of claim.\r\n        bytes32 verifierName; // Name of verifier.\r\n        address verifier; // Address of verifier.\r\n        bool verified; // Whether claim is verified or not.\r\n    }\r\n\r\n    Claim[] private claims; // Array of customer's claims.\r\n    FactoryInterface factoryContract; // Factory contract.\r\n\r\n    event NewClaim(bytes32 _dataId); // To return data identifier when claim is created.\r\n\r\n    // Constructor that only runs once when the contract is created.\r\n    // Set owner of identity and factory contract.\r\n    constructor(address _owner) public {\r\n        owner = _owner;\r\n        factoryContract = FactoryInterface(msg.sender);\r\n    }\r\n\r\n    // Checks that caller is the owner of identity.\r\n    modifier onlyOwner() {\r\n        require(msg.sender == owner);\r\n        _;\r\n    }\r\n\r\n    // Add claim to array of claims.\r\n    function _addClaim(bytes32 _dataId, bytes32 _descr, uint _expiry) private {\r\n        address gov = factoryContract.getGovAddress();\r\n        Claim memory thisClaim = Claim(_expiry, _dataId, _descr, \"SA Government\", gov, false);\r\n        claims.push(thisClaim);\r\n    }\r\n\r\n    // Create claim for proof of identity.\r\n    function createClaimID(\r\n        uint _idnumber, bytes32 _name, uint _dob) public onlyOwner {\r\n        claimNonce++;\r\n        bytes32 dataId = keccak256(abi.encodePacked(_idnumber, _name, _dob, owner, claimNonce));\r\n        _addClaim(dataId, \"South African identity\", 0);\r\n        _requestVerification(claims.length);\r\n        emit NewClaim(dataId);\r\n    }\r\n\r\n    // Create claim for proof of address.\r\n    function createClaimAddress(\r\n        bytes32 _line1, bytes32 _line2, bytes32 _town, bytes32 _country, uint _code, \r\n        uint _expiry) public onlyOwner {\r\n        claimNonce++;\r\n        bytes32 dataId = keccak256(abi.encodePacked(_line1, _line2, _town, _country, _code, owner, claimNonce));\r\n        _addClaim(dataId, \"Residential address\", _expiry);\r\n        _requestVerification(claims.length);\r\n        emit NewClaim(dataId);\r\n    }\r\n\r\n    // Create claim for proof of age.\r\n    function createClaimAge(uint _dob) public onlyOwner {\r\n        claimNonce++;\r\n        bytes32 dataId = keccak256(abi.encodePacked(_dob, owner, claimNonce));\r\n        _addClaim(dataId, \"Age over 18 years\", 0);\r\n        _requestVerification(claims.length);\r\n        emit NewClaim(dataId);\r\n    }\r\n\r\n    // Request verification of claim from government.\r\n    function _requestVerification(uint _claimNum) private {\r\n        Claim memory thisClaim = claims[_claimNum - 1];\r\n        address govContractAddress = factoryContract.getContractAddress(1, address(0));\r\n        GovInterface govContract = GovInterface(govContractAddress);\r\n        govContract.addVerificationRequest(\r\n            owner, _claimNum, thisClaim.expiryDate, thisClaim.dataIdentifier, \r\n            thisClaim.description, thisClaim.verifierName, thisClaim.verifier, thisClaim.verified);\r\n    }\r\n\r\n    // Add verification of claim from government.\r\n    function addVerification(uint _claimNum) public {\r\n        address govContractAddress = factoryContract.getContractAddress(1, address(0));\r\n        require(msg.sender == govContractAddress);\r\n        claims[_claimNum - 1].verified = true;\r\n    }\r\n\r\n    // Share claim with insurer.\r\n    function shareClaim(uint _claimNum) public onlyOwner {\r\n        Claim memory thisClaim = claims[_claimNum - 1];\r\n        address corpContractAddress = factoryContract.getContractAddress(2, address(0));\r\n        CorpInterface corpContract = CorpInterface(corpContractAddress);\r\n        corpContract.addSharedClaim(\r\n            owner, thisClaim.expiryDate, thisClaim.dataIdentifier, \r\n            thisClaim.description, thisClaim.verifierName, thisClaim.verifier, thisClaim.verified);\r\n    }\r\n\r\n    // Add verified claim from insurer.\r\n    function receiveClaim(\r\n        uint _expiry, bytes32 _dataId, bytes32 _descr, bytes32 _verifierName, \r\n        address _verifier, bool _verified) public {\r\n        address corpContractAddress = factoryContract.getContractAddress(2, address(0));\r\n        require(msg.sender == corpContractAddress);\r\n        Claim memory thisClaim = Claim(_expiry, _dataId, _descr, _verifierName, _verifier, _verified);\r\n        claims.push(thisClaim);\r\n    }\r\n\r\n    // Get the number of claims.\r\n    function getClaimCount() public view onlyOwner returns (uint) {\r\n        return claims.length;\r\n    }\r\n\r\n    // View a claim.\r\n    function getClaim(uint _index) public view onlyOwner returns (\r\n        uint, bytes32, bytes32, bytes32, address, bool) {\r\n        return (\r\n            claims[_index].expiryDate, claims[_index].dataIdentifier, claims[_index].description,\r\n            claims[_index].verifierName, claims[_index].verifier, claims[_index].verified);\r\n    }\r\n}\r\n",
  "sourcePath": "C:\\Users\\Jo\\Main\\Identity\\contracts\\IdentityCustomer.sol",
  "compiler": {
    "name": "solc",
    "version": "0.4.24+commit.e67f0147.Emscripten.clang"
  },
  "schemaVersion": "2.0.1",
  "updatedAt": "2019-02-10T22:48:17.469Z"
}