{
  "contractName": "IdentityFactory",
  "abi": [
    {
      "constant": true,
      "inputs": [],
      "name": "identityCount",
      "outputs": [
        {
          "name": "",
          "type": "uint256"
        }
      ],
      "payable": false,
      "stateMutability": "view",
      "type": "function"
    },
    {
      "constant": true,
      "inputs": [
        {
          "name": "",
          "type": "uint256"
        }
      ],
      "name": "services",
      "outputs": [
        {
          "name": "provider",
          "type": "address"
        },
        {
          "name": "providerName",
          "type": "bytes32"
        },
        {
          "name": "description",
          "type": "bytes32"
        },
        {
          "name": "contact",
          "type": "uint256"
        }
      ],
      "payable": false,
      "stateMutability": "view",
      "type": "function"
    },
    {
      "constant": true,
      "inputs": [
        {
          "name": "",
          "type": "address"
        }
      ],
      "name": "ownerToIDType",
      "outputs": [
        {
          "name": "",
          "type": "uint256"
        }
      ],
      "payable": false,
      "stateMutability": "view",
      "type": "function"
    },
    {
      "anonymous": false,
      "inputs": [],
      "name": "NewIdentity",
      "type": "event"
    },
    {
      "constant": false,
      "inputs": [
        {
          "name": "_IDType",
          "type": "uint256"
        }
      ],
      "name": "createIdentity",
      "outputs": [],
      "payable": false,
      "stateMutability": "nonpayable",
      "type": "function"
    },
    {
      "constant": true,
      "inputs": [],
      "name": "getServiceCount",
      "outputs": [
        {
          "name": "",
          "type": "uint256"
        }
      ],
      "payable": false,
      "stateMutability": "view",
      "type": "function"
    },
    {
      "constant": true,
      "inputs": [],
      "name": "getGovAddress",
      "outputs": [
        {
          "name": "",
          "type": "address"
        }
      ],
      "payable": false,
      "stateMutability": "view",
      "type": "function"
    },
    {
      "constant": true,
      "inputs": [
        {
          "name": "_IDType",
          "type": "uint256"
        },
        {
          "name": "_owner",
          "type": "address"
        }
      ],
      "name": "getContractAddress",
      "outputs": [
        {
          "name": "",
          "type": "address"
        }
      ],
      "payable": false,
      "stateMutability": "view",
      "type": "function"
    }
  ],
  "bytecode": "0x6080604052600060025534801561001557600080fd5b50614b66806100256000396000f300608060405260043610610083576000357c0100000000000000000000000000000000000000000000000000000000900463ffffffff1680633672404e1461008857806338678ba5146100b3578063618a832f146100de57806382abfa971461016b578063c22c4f4314610198578063cd2037db1461022a578063ef4a63b814610281575b600080fd5b34801561009457600080fd5b5061009d6102d8565b6040518082815260200191505060405180910390f35b3480156100bf57600080fd5b506100c86102e5565b6040518082815260200191505060405180910390f35b3480156100ea57600080fd5b5061012960048036038101908080359060200190929190803573ffffffffffffffffffffffffffffffffffffffff1690602001909291905050506102eb565b604051808273ffffffffffffffffffffffffffffffffffffffff1673ffffffffffffffffffffffffffffffffffffffff16815260200191505060405180910390f35b34801561017757600080fd5b5061019660048036038101908080359060200190929190505050610479565b005b3480156101a457600080fd5b506101c360048036038101908080359060200190929190505050610e07565b604051808573ffffffffffffffffffffffffffffffffffffffff1673ffffffffffffffffffffffffffffffffffffffff1681526020018460001916600019168152602001836000191660001916815260200182815260200194505050505060405180910390f35b34801561023657600080fd5b5061026b600480360381019080803573ffffffffffffffffffffffffffffffffffffffff169060200190929190505050610e66565b6040518082815260200191505060405180910390f35b34801561028d57600080fd5b50610296610e7e565b604051808273ffffffffffffffffffffffffffffffffffffffff1673ffffffffffffffffffffffffffffffffffffffff16815260200191505060405180910390f35b6000600380549050905090565b60025481565b6000600183141561037e57600460008060009054906101000a900473ffffffffffffffffffffffffffffffffffffffff1673ffffffffffffffffffffffffffffffffffffffff1673ffffffffffffffffffffffffffffffffffffffff16815260200190815260200160002060009054906101000a900473ffffffffffffffffffffffffffffffffffffffff169050610473565b60028314156104105760046000600160009054906101000a900473ffffffffffffffffffffffffffffffffffffffff1673ffffffffffffffffffffffffffffffffffffffff1673ffffffffffffffffffffffffffffffffffffffff16815260200190815260200160002060009054906101000a900473ffffffffffffffffffffffffffffffffffffffff169050610473565b600460008373ffffffffffffffffffffffffffffffffffffffff1673ffffffffffffffffffffffffffffffffffffffff16815260200190815260200160002060009054906101000a900473ffffffffffffffffffffffffffffffffffffffff1690505b92915050565b60008060008073ffffffffffffffffffffffffffffffffffffffff16600460003373ffffffffffffffffffffffffffffffffffffffff1673ffffffffffffffffffffffffffffffffffffffff16815260200190815260200160002060009054906101000a900473ffffffffffffffffffffffffffffffffffffffff1673ffffffffffffffffffffffffffffffffffffffff1614151561051757600080fd5b60018414156107e257600073ffffffffffffffffffffffffffffffffffffffff166000809054906101000a900473ffffffffffffffffffffffffffffffffffffffff1673ffffffffffffffffffffffffffffffffffffffff1614151561057c57600080fd5b33610585610ea7565b808273ffffffffffffffffffffffffffffffffffffffff1673ffffffffffffffffffffffffffffffffffffffff168152602001915050604051809103906000f0801580156105d7573d6000803e3d6000fd5b50925082600460003373ffffffffffffffffffffffffffffffffffffffff1673ffffffffffffffffffffffffffffffffffffffff16815260200190815260200160002060006101000a81548173ffffffffffffffffffffffffffffffffffffffff021916908373ffffffffffffffffffffffffffffffffffffffff160217905550336000806101000a81548173ffffffffffffffffffffffffffffffffffffffff021916908373ffffffffffffffffffffffffffffffffffffffff16021790555060036080604051908101604052806000809054906101000a900473ffffffffffffffffffffffffffffffffffffffff1673ffffffffffffffffffffffffffffffffffffffff1681526020017f534120476f7665726e6d656e74000000000000000000000000000000000000006000191681526020017f56657269666965720000000000000000000000000000000000000000000000006000191681526020016254b0148152509080600181540180825580915050906001820390600052602060002090600402016000909192909190915060008201518160000160006101000a81548173ffffffffffffffffffffffffffffffffffffffff021916908373ffffffffffffffffffffffffffffffffffffffff160217905550602082015181600101906000191690556040820151816002019060001916905560608201518160030155505050610ce9565b6002841415610bf657600073ffffffffffffffffffffffffffffffffffffffff16600160009054906101000a900473ffffffffffffffffffffffffffffffffffffffff1673ffffffffffffffffffffffffffffffffffffffff1614151561084857600080fd5b33610851610eb7565b808273ffffffffffffffffffffffffffffffffffffffff1673ffffffffffffffffffffffffffffffffffffffff168152602001915050604051809103906000f0801580156108a3573d6000803e3d6000fd5b50915081600460003373ffffffffffffffffffffffffffffffffffffffff1673ffffffffffffffffffffffffffffffffffffffff16815260200190815260200160002060006101000a81548173ffffffffffffffffffffffffffffffffffffffff021916908373ffffffffffffffffffffffffffffffffffffffff16021790555033600160006101000a81548173ffffffffffffffffffffffffffffffffffffffff021916908373ffffffffffffffffffffffffffffffffffffffff1602179055506003608060405190810160405280600160009054906101000a900473ffffffffffffffffffffffffffffffffffffffff1673ffffffffffffffffffffffffffffffffffffffff1681526020017f496e7375726572000000000000000000000000000000000000000000000000006000191681526020017f53696e676c652046756e6572616c20506c616e000000000000000000000000006000191681526020016254b0158152509080600181540180825580915050906001820390600052602060002090600402016000909192909190915060008201518160000160006101000a81548173ffffffffffffffffffffffffffffffffffffffff021916908373ffffffffffffffffffffffffffffffffffffffff1602179055506020820151816001019060001916905560408201518160020190600019169055606082015181600301555050506003608060405190810160405280600160009054906101000a900473ffffffffffffffffffffffffffffffffffffffff1673ffffffffffffffffffffffffffffffffffffffff1681526020017f496e7375726572000000000000000000000000000000000000000000000000006000191681526020017f46616d696c792046756e6572616c20506c616e000000000000000000000000006000191681526020016254b0168152509080600181540180825580915050906001820390600052602060002090600402016000909192909190915060008201518160000160006101000a81548173ffffffffffffffffffffffffffffffffffffffff021916908373ffffffffffffffffffffffffffffffffffffffff160217905550602082015181600101906000191690556040820151816002019060001916905560608201518160030155505050610ce8565b6003841480610c055750600484145b15610ce75733610c13610ec7565b808273ffffffffffffffffffffffffffffffffffffffff1673ffffffffffffffffffffffffffffffffffffffff168152602001915050604051809103906000f080158015610c65573d6000803e3d6000fd5b50905080600460003373ffffffffffffffffffffffffffffffffffffffff1673ffffffffffffffffffffffffffffffffffffffff16815260200190815260200160002060006101000a81548173ffffffffffffffffffffffffffffffffffffffff021916908373ffffffffffffffffffffffffffffffffffffffff1602179055505b5b5b600073ffffffffffffffffffffffffffffffffffffffff16600460003373ffffffffffffffffffffffffffffffffffffffff1673ffffffffffffffffffffffffffffffffffffffff16815260200190815260200160002060009054906101000a900473ffffffffffffffffffffffffffffffffffffffff1673ffffffffffffffffffffffffffffffffffffffff16141515610e015783600560003373ffffffffffffffffffffffffffffffffffffffff1673ffffffffffffffffffffffffffffffffffffffff168152602001908152602001600020819055506002600081548092919060010191905055507f12e485f5d6f102f02943e6cf5c6f4a82f09cd297e95c7959aa72d11891278f1f60405160405180910390a15b50505050565b600381815481101515610e1657fe5b90600052602060002090600402016000915090508060000160009054906101000a900473ffffffffffffffffffffffffffffffffffffffff16908060010154908060020154908060030154905084565b60056020528060005260406000206000915090505481565b60008060009054906101000a900473ffffffffffffffffffffffffffffffffffffffff16905090565b604051610e6480610ed883390190565b60405161149280611d3c83390190565b60405161196d806131ce833901905600608060405234801561001057600080fd5b50604051602080610e6483398101806040528101908080519060200190929190505050806000806101000a81548173ffffffffffffffffffffffffffffffffffffffff021916908373ffffffffffffffffffffffffffffffffffffffff16021790555033600260006101000a81548173ffffffffffffffffffffffffffffffffffffffff021916908373ffffffffffffffffffffffffffffffffffffffff16021790555050610da0806100c46000396000f300608060405260043610610062576000357c0100000000000000000000000000000000000000000000000000000000900463ffffffff1680634b423fa914610067578063a03100fe14610146578063ba925207146101f3578063c0d7e2b61461021e575b600080fd5b34801561007357600080fd5b506100926004803603810190808035906020019092919050505061024b565b604051808873ffffffffffffffffffffffffffffffffffffffff1673ffffffffffffffffffffffffffffffffffffffff1681526020018781526020018660001916600019168152602001856000191660001916815260200184600019166000191681526020018373ffffffffffffffffffffffffffffffffffffffff1673ffffffffffffffffffffffffffffffffffffffff1681526020018215151515815260200197505050505050505060405180910390f35b34801561015257600080fd5b506101f1600480360381019080803573ffffffffffffffffffffffffffffffffffffffff1690602001909291908035906020019092919080359060200190929190803560001916906020019092919080356000191690602001909291908035600019169060200190929190803573ffffffffffffffffffffffffffffffffffffffff169060200190929190803515159060200190929190505050610433565b005b3480156101ff57600080fd5b5061020861077b565b6040518082815260200191505060405180910390f35b34801561022a57600080fd5b50610249600480360381019080803590602001909291905050506107e3565b005b600080600080600080600061025e610c1c565b6000809054906101000a900473ffffffffffffffffffffffffffffffffffffffff1673ffffffffffffffffffffffffffffffffffffffff163373ffffffffffffffffffffffffffffffffffffffff161415156102b957600080fd5b6001898154811015156102c857fe5b9060005260206000209060070201610100604051908101604052908160008201548152602001600182015481526020016002820154600019166000191681526020016003820154600019166000191681526020016004820154600019166000191681526020016005820160009054906101000a900473ffffffffffffffffffffffffffffffffffffffff1673ffffffffffffffffffffffffffffffffffffffff1673ffffffffffffffffffffffffffffffffffffffff1681526020016006820160009054906101000a900473ffffffffffffffffffffffffffffffffffffffff1673ffffffffffffffffffffffffffffffffffffffff1673ffffffffffffffffffffffffffffffffffffffff1681526020016006820160149054906101000a900460ff16151515158152505090508060c0015181602001518260400151836060015184608001518560a001518660e00151975097509750975097509750975050919395979092949650565b600061043d610c1c565b6000809054906101000a900473ffffffffffffffffffffffffffffffffffffffff1673ffffffffffffffffffffffffffffffffffffffff168473ffffffffffffffffffffffffffffffffffffffff1614151561049857600080fd5b600260009054906101000a900473ffffffffffffffffffffffffffffffffffffffff1673ffffffffffffffffffffffffffffffffffffffff1663618a832f60038c6040518363ffffffff167c0100000000000000000000000000000000000000000000000000000000028152600401808381526020018273ffffffffffffffffffffffffffffffffffffffff1673ffffffffffffffffffffffffffffffffffffffff16815260200192505050602060405180830381600087803b15801561055e57600080fd5b505af1158015610572573d6000803e3d6000fd5b505050506040513d602081101561058857600080fd5b810190808051906020019092919050505091508173ffffffffffffffffffffffffffffffffffffffff163373ffffffffffffffffffffffffffffffffffffffff161415156105d557600080fd5b610100604051908101604052808a81526020018981526020018860001916815260200187600019168152602001866000191681526020018573ffffffffffffffffffffffffffffffffffffffff1681526020018b73ffffffffffffffffffffffffffffffffffffffff168152602001841515815250905060018190806001815401808255809150509060018203906000526020600020906007020160009091929091909150600082015181600001556020820151816001015560408201518160020190600019169055606082015181600301906000191690556080820151816004019060001916905560a08201518160050160006101000a81548173ffffffffffffffffffffffffffffffffffffffff021916908373ffffffffffffffffffffffffffffffffffffffff16021790555060c08201518160060160006101000a81548173ffffffffffffffffffffffffffffffffffffffff021916908373ffffffffffffffffffffffffffffffffffffffff16021790555060e08201518160060160146101000a81548160ff02191690831515021790555050505050505050505050505050565b60008060009054906101000a900473ffffffffffffffffffffffffffffffffffffffff1673ffffffffffffffffffffffffffffffffffffffff163373ffffffffffffffffffffffffffffffffffffffff161415156107d857600080fd5b600180549050905090565b60008060008060008060009054906101000a900473ffffffffffffffffffffffffffffffffffffffff1673ffffffffffffffffffffffffffffffffffffffff163373ffffffffffffffffffffffffffffffffffffffff1614151561084657600080fd5b60008611801561085b57506001805490508611155b151561086657600080fd5b600180870381548110151561087757fe5b906000526020600020906007020160060160009054906101000a900473ffffffffffffffffffffffffffffffffffffffff16945060018087038154811015156108bc57fe5b9060005260206000209060070201600001549350600260009054906101000a900473ffffffffffffffffffffffffffffffffffffffff1673ffffffffffffffffffffffffffffffffffffffff1663618a832f6003876040518363ffffffff167c0100000000000000000000000000000000000000000000000000000000028152600401808381526020018273ffffffffffffffffffffffffffffffffffffffff1673ffffffffffffffffffffffffffffffffffffffff16815260200192505050602060405180830381600087803b15801561099657600080fd5b505af11580156109aa573d6000803e3d6000fd5b505050506040513d60208110156109c057600080fd5b810190808051906020019092919050505092508291508173ffffffffffffffffffffffffffffffffffffffff1663e5fc270e856040518263ffffffff167c010000000000000000000000000000000000000000000000000000000002815260040180828152602001915050600060405180830381600087803b158015610a4557600080fd5b505af1158015610a59573d6000803e3d6000fd5b505050506001860390505b6001808054905003811015610bfe576001808201815481101515610a8457fe5b9060005260206000209060070201600182815481101515610aa157fe5b906000526020600020906007020160008201548160000155600182015481600101556002820154816002019060001916905560038201548160030190600019169055600482015481600401906000191690556005820160009054906101000a900473ffffffffffffffffffffffffffffffffffffffff168160050160006101000a81548173ffffffffffffffffffffffffffffffffffffffff021916908373ffffffffffffffffffffffffffffffffffffffff1602179055506006820160009054906101000a900473ffffffffffffffffffffffffffffffffffffffff168160060160006101000a81548173ffffffffffffffffffffffffffffffffffffffff021916908373ffffffffffffffffffffffffffffffffffffffff1602179055506006820160149054906101000a900460ff168160060160146101000a81548160ff0219169083151502179055509050508080600101915050610a64565b6001805480919060019003610c139190610c99565b50505050505050565b610100604051908101604052806000815260200160008152602001600080191681526020016000801916815260200160008019168152602001600073ffffffffffffffffffffffffffffffffffffffff168152602001600073ffffffffffffffffffffffffffffffffffffffff1681526020016000151581525090565b815481835581811115610cc657600702816007028360005260206000209182019101610cc59190610ccb565b5b505050565b610d7191905b80821115610d6d5760008082016000905560018201600090556002820160009055600382016000905560048201600090556005820160006101000a81549073ffffffffffffffffffffffffffffffffffffffff02191690556006820160006101000a81549073ffffffffffffffffffffffffffffffffffffffff02191690556006820160146101000a81549060ff021916905550600701610cd1565b5090565b905600a165627a7a723058209a4cfea14e4cf6d09c08fade2e1c5870d131d12c31c0cd99fb0ef2edf2f7741600296080604052600060015534801561001557600080fd5b5060405160208061149283398101806040528101908080519060200190929190505050806000806101000a81548173ffffffffffffffffffffffffffffffffffffffff021916908373ffffffffffffffffffffffffffffffffffffffff16021790555033600460006101000a81548173ffffffffffffffffffffffffffffffffffffffff021916908373ffffffffffffffffffffffffffffffffffffffff160217905550506113c9806100c96000396000f30060806040526004361061008e576000357c0100000000000000000000000000000000000000000000000000000000900463ffffffff1680632027d746146100935780634576d9e2146100be5780637ad8447514610174578063ba1d6b891461018b578063c3bbcbd01461022e578063d5f74018146102b7578063ddc500e6146102fa578063eb876f271461033b575b600080fd5b34801561009f57600080fd5b506100a86103db565b6040518082815260200191505060405180910390f35b3480156100ca57600080fd5b506100f36004803603810190808035906020019092919080359060200190929190505050610443565b604051808781526020018660001916600019168152602001856000191660001916815260200184600019166000191681526020018373ffffffffffffffffffffffffffffffffffffffff1673ffffffffffffffffffffffffffffffffffffffff16815260200182151515158152602001965050505050505060405180910390f35b34801561018057600080fd5b506101896105de565b005b34801561019757600080fd5b5061022c600480360381019080803573ffffffffffffffffffffffffffffffffffffffff16906020019092919080359060200190929190803560001916906020019092919080356000191690602001909291908035600019169060200190929190803573ffffffffffffffffffffffffffffffffffffffff1690602001909291908035151590602001909291905050506106f3565b005b34801561023a57600080fd5b506102b56004803603810190808035906020019092919080359060200190929190803590602001909291908035906020019092919080359060200190929190803560001916906020019092919080359060200190929190803560001916906020019092919080356000191690602001909291905050506109d0565b005b3480156102c357600080fd5b506102f8600480360381019080803573ffffffffffffffffffffffffffffffffffffffff169060200190929190505050610bc5565b005b34801561030657600080fd5b5061032560048036038101908080359060200190929190505050610c6f565b6040518082815260200191505060405180910390f35b34801561034757600080fd5b5061036660048036038101908080359060200190929190505050610cf7565b604051808373ffffffffffffffffffffffffffffffffffffffff1673ffffffffffffffffffffffffffffffffffffffff1681526020018273ffffffffffffffffffffffffffffffffffffffff1673ffffffffffffffffffffffffffffffffffffffff1681526020019250505060405180910390f35b60008060009054906101000a900473ffffffffffffffffffffffffffffffffffffffff1673ffffffffffffffffffffffffffffffffffffffff163373ffffffffffffffffffffffffffffffffffffffff1614151561043857600080fd5b600280549050905090565b6000806000806000806104546111f8565b6000809054906101000a900473ffffffffffffffffffffffffffffffffffffffff1673ffffffffffffffffffffffffffffffffffffffff163373ffffffffffffffffffffffffffffffffffffffff161415156104af57600080fd5b6002898154811015156104be57fe5b9060005260206000209060030201600201888154811015156104dc57fe5b906000526020600020906005020160c06040519081016040529081600082015481526020016001820154600019166000191681526020016002820154600019166000191681526020016003820154600019166000191681526020016004820160009054906101000a900473ffffffffffffffffffffffffffffffffffffffff1673ffffffffffffffffffffffffffffffffffffffff1673ffffffffffffffffffffffffffffffffffffffff1681526020016004820160149054906101000a900460ff1615151515815250509050806000015181602001518260400151836060015184608001518560a00151965096509650965096509650509295509295509295565b6000600360003373ffffffffffffffffffffffffffffffffffffffff1673ffffffffffffffffffffffffffffffffffffffff1681526020019081526020016000205414151561062c57600080fd5b600280548091906001016106409190611250565b5033600260016002805490500381548110151561065957fe5b906000526020600020906003020160000160006101000a81548173ffffffffffffffffffffffffffffffffffffffff021916908373ffffffffffffffffffffffffffffffffffffffff160217905550600280549050600360003373ffffffffffffffffffffffffffffffffffffffff1673ffffffffffffffffffffffffffffffffffffffff16815260200190815260200160002081905550565b6000806106fe6111f8565b600460009054906101000a900473ffffffffffffffffffffffffffffffffffffffff1673ffffffffffffffffffffffffffffffffffffffff1663618a832f60038c6040518363ffffffff167c0100000000000000000000000000000000000000000000000000000000028152600401808381526020018273ffffffffffffffffffffffffffffffffffffffff1673ffffffffffffffffffffffffffffffffffffffff16815260200192505050602060405180830381600087803b1580156107c457600080fd5b505af11580156107d8573d6000803e3d6000fd5b505050506040513d60208110156107ee57600080fd5b810190808051906020019092919050505092508273ffffffffffffffffffffffffffffffffffffffff163373ffffffffffffffffffffffffffffffffffffffff1614151561083b57600080fd5b600360008b73ffffffffffffffffffffffffffffffffffffffff1673ffffffffffffffffffffffffffffffffffffffff16815260200190815260200160002054915060c0604051908101604052808a81526020018960001916815260200188600019168152602001876000191681526020018673ffffffffffffffffffffffffffffffffffffffff16815260200185151581525090506002600183038154811015156108e357fe5b906000526020600020906003020160020181908060018154018082558091505090600182039060005260206000209060050201600090919290919091506000820151816000015560208201518160010190600019169055604082015181600201906000191690556060820151816003019060001916905560808201518160040160006101000a81548173ffffffffffffffffffffffffffffffffffffffff021916908373ffffffffffffffffffffffffffffffffffffffff16021790555060a08201518160040160146101000a81548160ff02191690831515021790555050505050505050505050505050565b60008060009054906101000a900473ffffffffffffffffffffffffffffffffffffffff1673ffffffffffffffffffffffffffffffffffffffff163373ffffffffffffffffffffffffffffffffffffffff16141515610a2d57600080fd5b6001600081548092919060010191905055508787878787878760015460405160200180898152602001888152602001878152602001866000191660001916815260200185815260200184600019166000191681526020018360001916600019168152602001828152602001985050505050505050506040516020818303038152906040526040518082805190602001908083835b602083101515610ae65780518252602082019150602081019050602083039250610ac1565b6001836020036101000a0380198251168184511680821785525050505050509050019150506040518091039020905060028a1415610b4e57610b4989827f46616d696c792046756e6572616c20506c616e00000000000000000000000000610de0565b610b7a565b610b7989827f53696e676c652046756e6572616c20506c616e00000000000000000000000000610de0565b5b7f2a2af4037a63f04bdd8515173da151cfc675f20455750107700eb1605ea16e808160405180826000191660001916815260200191505060405180910390a150505050505050505050565b6000600360003373ffffffffffffffffffffffffffffffffffffffff1673ffffffffffffffffffffffffffffffffffffffff16815260200190815260200160002054905081600260018303815481101515610c1c57fe5b906000526020600020906003020160010160006101000a81548173ffffffffffffffffffffffffffffffffffffffff021916908373ffffffffffffffffffffffffffffffffffffffff1602179055505050565b60008060009054906101000a900473ffffffffffffffffffffffffffffffffffffffff1673ffffffffffffffffffffffffffffffffffffffff163373ffffffffffffffffffffffffffffffffffffffff16141515610ccc57600080fd5b600282815481101515610cdb57fe5b9060005260206000209060030201600201805490509050919050565b6000806000809054906101000a900473ffffffffffffffffffffffffffffffffffffffff1673ffffffffffffffffffffffffffffffffffffffff163373ffffffffffffffffffffffffffffffffffffffff16141515610d5557600080fd5b600283815481101515610d6457fe5b906000526020600020906003020160000160009054906101000a900473ffffffffffffffffffffffffffffffffffffffff16600284815481101515610da557fe5b906000526020600020906003020160010160009054906101000a900473ffffffffffffffffffffffffffffffffffffffff1691509150915091565b610de86111f8565b60008060c0604051908101604052806000815260200186600019168152602001856000191681526020017f496e7375726572000000000000000000000000000000000000000000000000006000191681526020016000809054906101000a900473ffffffffffffffffffffffffffffffffffffffff1673ffffffffffffffffffffffffffffffffffffffff168152602001600115158152509250600260018703815481101515610e9457fe5b906000526020600020906003020160020183908060018154018082558091505090600182039060005260206000209060050201600090919290919091506000820151816000015560208201518160010190600019169055604082015181600201906000191690556060820151816003019060001916905560808201518160040160006101000a81548173ffffffffffffffffffffffffffffffffffffffff021916908373ffffffffffffffffffffffffffffffffffffffff16021790555060a08201518160040160146101000a81548160ff021916908315150217905550505050600460009054906101000a900473ffffffffffffffffffffffffffffffffffffffff1673ffffffffffffffffffffffffffffffffffffffff1663618a832f6003600260018a03815481101515610fc757fe5b906000526020600020906003020160000160009054906101000a900473ffffffffffffffffffffffffffffffffffffffff166040518363ffffffff167c0100000000000000000000000000000000000000000000000000000000028152600401808381526020018273ffffffffffffffffffffffffffffffffffffffff1673ffffffffffffffffffffffffffffffffffffffff16815260200192505050602060405180830381600087803b15801561107e57600080fd5b505af1158015611092573d6000803e3d6000fd5b505050506040513d60208110156110a857600080fd5b810190808051906020019092919050505091508190508073ffffffffffffffffffffffffffffffffffffffff1663603836f0600087876000809054906101000a900473ffffffffffffffffffffffffffffffffffffffff1660016040518663ffffffff167c01000000000000000000000000000000000000000000000000000000000281526004018086815260200185600019166000191681526020018460001916600019168152602001807f496e7375726572000000000000000000000000000000000000000000000000008152506020018373ffffffffffffffffffffffffffffffffffffffff1673ffffffffffffffffffffffffffffffffffffffff1681526020018215151515815260200195505050505050600060405180830381600087803b1580156111d857600080fd5b505af11580156111ec573d6000803e3d6000fd5b50505050505050505050565b60c06040519081016040528060008152602001600080191681526020016000801916815260200160008019168152602001600073ffffffffffffffffffffffffffffffffffffffff1681526020016000151581525090565b81548183558181111561127d5760030281600302836000526020600020918201910161127c9190611282565b5b505050565b6112fc91905b808211156112f857600080820160006101000a81549073ffffffffffffffffffffffffffffffffffffffff02191690556001820160006101000a81549073ffffffffffffffffffffffffffffffffffffffff02191690556002820160006112ef91906112ff565b50600301611288565b5090565b90565b50805460008255600502906000526020600020908101906113209190611323565b50565b61139a91905b80821115611396576000808201600090556001820160009055600282016000905560038201600090556004820160006101000a81549073ffffffffffffffffffffffffffffffffffffffff02191690556004820160146101000a81549060ff021916905550600501611329565b5090565b905600a165627a7a723058205df6640b19bb053474996340f954824dcc74a6dde5051bd9435331c093b6819300296080604052600060015534801561001557600080fd5b5060405160208061196d83398101806040528101908080519060200190929190505050806000806101000a81548173ffffffffffffffffffffffffffffffffffffffff021916908373ffffffffffffffffffffffffffffffffffffffff16021790555033600360006101000a81548173ffffffffffffffffffffffffffffffffffffffff021916908373ffffffffffffffffffffffffffffffffffffffff160217905550506118a4806100c96000396000f30060806040526004361061008e576000357c0100000000000000000000000000000000000000000000000000000000900463ffffffff16806325935ccc1461009357806327199beb146100c057806327fe44d6146101055780635aef244714610132578063603836f0146101de578063a9c9897b14610261578063ba4611d9146102d0578063e5fc270e146102fb575b600080fd5b34801561009f57600080fd5b506100be60048036038101908080359060200190929190505050610328565b005b3480156100cc57600080fd5b5061010360048036038101908080359060200190929190803560001916906020019092919080359060200190929190505050610506565b005b34801561011157600080fd5b50610130600480360381019080803590602001909291905050506106fe565b005b34801561013e57600080fd5b5061015d60048036038101908080359060200190929190505050610ab4565b604051808781526020018660001916600019168152602001856000191660001916815260200184600019166000191681526020018373ffffffffffffffffffffffffffffffffffffffff1673ffffffffffffffffffffffffffffffffffffffff16815260200182151515158152602001965050505050505060405180910390f35b3480156101ea57600080fd5b5061025f60048036038101908080359060200190929190803560001916906020019092919080356000191690602001909291908035600019169060200190929190803573ffffffffffffffffffffffffffffffffffffffff169060200190929190803515159060200190929190505050610c20565b005b34801561026d57600080fd5b506102ce60048036038101908080356000191690602001909291908035600019169060200190929190803560001916906020019092919080356000191690602001909291908035906020019092919080359060200190929190505050610e98565b005b3480156102dc57600080fd5b506102e56110ba565b6040518082815260200191505060405180910390f35b34801561030757600080fd5b5061032660048036038101908080359060200190929190505050611122565b005b60008060009054906101000a900473ffffffffffffffffffffffffffffffffffffffff1673ffffffffffffffffffffffffffffffffffffffff163373ffffffffffffffffffffffffffffffffffffffff1614151561038557600080fd5b600160008154809291906001019190505550816000809054906101000a900473ffffffffffffffffffffffffffffffffffffffff16600154604051602001808481526020018373ffffffffffffffffffffffffffffffffffffffff1673ffffffffffffffffffffffffffffffffffffffff166c0100000000000000000000000002815260140182815260200193505050506040516020818303038152906040526040518082805190602001908083835b60208310151561045a5780518252602082019150602081019050602083039250610435565b6001836020036101000a038019825116818451168082178552505050505050905001915050604051809103902090506104b5817f416765206f76657220313820796561727300000000000000000000000000000060006112a2565b6104c36002805490506114bd565b7f2a2af4037a63f04bdd8515173da151cfc675f20455750107700eb1605ea16e808160405180826000191660001916815260200191505060405180910390a15050565b60008060009054906101000a900473ffffffffffffffffffffffffffffffffffffffff1673ffffffffffffffffffffffffffffffffffffffff163373ffffffffffffffffffffffffffffffffffffffff1614151561056357600080fd5b6001600081548092919060010191905055508383836000809054906101000a900473ffffffffffffffffffffffffffffffffffffffff166001546040516020018086815260200185600019166000191681526020018481526020018373ffffffffffffffffffffffffffffffffffffffff1673ffffffffffffffffffffffffffffffffffffffff166c01000000000000000000000000028152601401828152602001955050505050506040516020818303038152906040526040518082805190602001908083835b602083101515610650578051825260208201915060208101905060208303925061062b565b6001836020036101000a038019825116818451168082178552505050505050905001915050604051809103902090506106ab817f536f757468204166726963616e206964656e746974790000000000000000000060006112a2565b6106b96002805490506114bd565b7f2a2af4037a63f04bdd8515173da151cfc675f20455750107700eb1605ea16e808160405180826000191660001916815260200191505060405180910390a150505050565b610706611820565b6000806000809054906101000a900473ffffffffffffffffffffffffffffffffffffffff1673ffffffffffffffffffffffffffffffffffffffff163373ffffffffffffffffffffffffffffffffffffffff1614151561076457600080fd5b60026001850381548110151561077657fe5b906000526020600020906005020160c06040519081016040529081600082015481526020016001820154600019166000191681526020016002820154600019166000191681526020016003820154600019166000191681526020016004820160009054906101000a900473ffffffffffffffffffffffffffffffffffffffff1673ffffffffffffffffffffffffffffffffffffffff1673ffffffffffffffffffffffffffffffffffffffff1681526020016004820160149054906101000a900460ff1615151515815250509250600360009054906101000a900473ffffffffffffffffffffffffffffffffffffffff1673ffffffffffffffffffffffffffffffffffffffff1663618a832f600260006040518363ffffffff167c0100000000000000000000000000000000000000000000000000000000028152600401808381526020018273ffffffffffffffffffffffffffffffffffffffff1673ffffffffffffffffffffffffffffffffffffffff16815260200192505050602060405180830381600087803b15801561090a57600080fd5b505af115801561091e573d6000803e3d6000fd5b505050506040513d602081101561093457600080fd5b810190808051906020019092919050505091508190508073ffffffffffffffffffffffffffffffffffffffff1663ba1d6b896000809054906101000a900473ffffffffffffffffffffffffffffffffffffffff16856000015186602001518760400151886060015189608001518a60a001516040518863ffffffff167c0100000000000000000000000000000000000000000000000000000000028152600401808873ffffffffffffffffffffffffffffffffffffffff1673ffffffffffffffffffffffffffffffffffffffff1681526020018781526020018660001916600019168152602001856000191660001916815260200184600019166000191681526020018373ffffffffffffffffffffffffffffffffffffffff1673ffffffffffffffffffffffffffffffffffffffff16815260200182151515158152602001975050505050505050600060405180830381600087803b158015610a9657600080fd5b505af1158015610aaa573d6000803e3d6000fd5b5050505050505050565b6000806000806000806000809054906101000a900473ffffffffffffffffffffffffffffffffffffffff1673ffffffffffffffffffffffffffffffffffffffff163373ffffffffffffffffffffffffffffffffffffffff16141515610b1857600080fd5b600287815481101515610b2757fe5b906000526020600020906005020160000154600288815481101515610b4857fe5b906000526020600020906005020160010154600289815481101515610b6957fe5b90600052602060002090600502016002015460028a815481101515610b8a57fe5b90600052602060002090600502016003015460028b815481101515610bab57fe5b906000526020600020906005020160040160009054906101000a900473ffffffffffffffffffffffffffffffffffffffff1660028c815481101515610bec57fe5b906000526020600020906005020160040160149054906101000a900460ff1695509550955095509550955091939550919395565b6000610c2a611820565b600360009054906101000a900473ffffffffffffffffffffffffffffffffffffffff1673ffffffffffffffffffffffffffffffffffffffff1663618a832f600260006040518363ffffffff167c0100000000000000000000000000000000000000000000000000000000028152600401808381526020018273ffffffffffffffffffffffffffffffffffffffff1673ffffffffffffffffffffffffffffffffffffffff16815260200192505050602060405180830381600087803b158015610cf157600080fd5b505af1158015610d05573d6000803e3d6000fd5b505050506040513d6020811015610d1b57600080fd5b810190808051906020019092919050505091508173ffffffffffffffffffffffffffffffffffffffff163373ffffffffffffffffffffffffffffffffffffffff16141515610d6857600080fd5b60c0604051908101604052808981526020018860001916815260200187600019168152602001866000191681526020018573ffffffffffffffffffffffffffffffffffffffff1681526020018415158152509050600281908060018154018082558091505090600182039060005260206000209060050201600090919290919091506000820151816000015560208201518160010190600019169055604082015181600201906000191690556060820151816003019060001916905560808201518160040160006101000a81548173ffffffffffffffffffffffffffffffffffffffff021916908373ffffffffffffffffffffffffffffffffffffffff16021790555060a08201518160040160146101000a81548160ff0219169083151502179055505050505050505050505050565b60008060009054906101000a900473ffffffffffffffffffffffffffffffffffffffff1673ffffffffffffffffffffffffffffffffffffffff163373ffffffffffffffffffffffffffffffffffffffff16141515610ef557600080fd5b60016000815480929190600101919050555086868686866000809054906101000a900473ffffffffffffffffffffffffffffffffffffffff166001546040516020018088600019166000191681526020018760001916600019168152602001866000191660001916815260200185600019166000191681526020018481526020018373ffffffffffffffffffffffffffffffffffffffff1673ffffffffffffffffffffffffffffffffffffffff166c010000000000000000000000000281526014018281526020019750505050505050506040516020818303038152906040526040518082805190602001908083835b60208310151561100a5780518252602082019150602081019050602083039250610fe5565b6001836020036101000a03801982511681845116808217855250505050505090500191505060405180910390209050611064817f5265736964656e7469616c206164647265737300000000000000000000000000846112a2565b6110726002805490506114bd565b7f2a2af4037a63f04bdd8515173da151cfc675f20455750107700eb1605ea16e808160405180826000191660001916815260200191505060405180910390a150505050505050565b60008060009054906101000a900473ffffffffffffffffffffffffffffffffffffffff1673ffffffffffffffffffffffffffffffffffffffff163373ffffffffffffffffffffffffffffffffffffffff1614151561111757600080fd5b600280549050905090565b6000600360009054906101000a900473ffffffffffffffffffffffffffffffffffffffff1673ffffffffffffffffffffffffffffffffffffffff1663618a832f600160006040518363ffffffff167c0100000000000000000000000000000000000000000000000000000000028152600401808381526020018273ffffffffffffffffffffffffffffffffffffffff1673ffffffffffffffffffffffffffffffffffffffff16815260200192505050602060405180830381600087803b1580156111eb57600080fd5b505af11580156111ff573d6000803e3d6000fd5b505050506040513d602081101561121557600080fd5b810190808051906020019092919050505090508073ffffffffffffffffffffffffffffffffffffffff163373ffffffffffffffffffffffffffffffffffffffff1614151561126257600080fd5b600160026001840381548110151561127657fe5b906000526020600020906005020160040160146101000a81548160ff0219169083151502179055505050565b60006112ac611820565b600360009054906101000a900473ffffffffffffffffffffffffffffffffffffffff1673ffffffffffffffffffffffffffffffffffffffff1663ef4a63b86040518163ffffffff167c0100000000000000000000000000000000000000000000000000000000028152600401602060405180830381600087803b15801561133257600080fd5b505af1158015611346573d6000803e3d6000fd5b505050506040513d602081101561135c57600080fd5b8101908080519060200190929190505050915060c06040519081016040528084815260200186600019168152602001856000191681526020017f534120476f7665726e6d656e74000000000000000000000000000000000000006000191681526020018373ffffffffffffffffffffffffffffffffffffffff168152602001600015158152509050600281908060018154018082558091505090600182039060005260206000209060050201600090919290919091506000820151816000015560208201518160010190600019169055604082015181600201906000191690556060820151816003019060001916905560808201518160040160006101000a81548173ffffffffffffffffffffffffffffffffffffffff021916908373ffffffffffffffffffffffffffffffffffffffff16021790555060a08201518160040160146101000a81548160ff0219169083151502179055505050505050505050565b6114c5611820565b6000806002600185038154811015156114da57fe5b906000526020600020906005020160c06040519081016040529081600082015481526020016001820154600019166000191681526020016002820154600019166000191681526020016003820154600019166000191681526020016004820160009054906101000a900473ffffffffffffffffffffffffffffffffffffffff1673ffffffffffffffffffffffffffffffffffffffff1673ffffffffffffffffffffffffffffffffffffffff1681526020016004820160149054906101000a900460ff1615151515815250509250600360009054906101000a900473ffffffffffffffffffffffffffffffffffffffff1673ffffffffffffffffffffffffffffffffffffffff1663618a832f600160006040518363ffffffff167c0100000000000000000000000000000000000000000000000000000000028152600401808381526020018273ffffffffffffffffffffffffffffffffffffffff1673ffffffffffffffffffffffffffffffffffffffff16815260200192505050602060405180830381600087803b15801561166e57600080fd5b505af1158015611682573d6000803e3d6000fd5b505050506040513d602081101561169857600080fd5b810190808051906020019092919050505091508190508073ffffffffffffffffffffffffffffffffffffffff1663a03100fe6000809054906101000a900473ffffffffffffffffffffffffffffffffffffffff168686600001518760200151886040015189606001518a608001518b60a001516040518963ffffffff167c0100000000000000000000000000000000000000000000000000000000028152600401808973ffffffffffffffffffffffffffffffffffffffff1673ffffffffffffffffffffffffffffffffffffffff1681526020018881526020018781526020018660001916600019168152602001856000191660001916815260200184600019166000191681526020018373ffffffffffffffffffffffffffffffffffffffff1673ffffffffffffffffffffffffffffffffffffffff1681526020018215151515815260200198505050505050505050600060405180830381600087803b15801561180257600080fd5b505af1158015611816573d6000803e3d6000fd5b5050505050505050565b60c06040519081016040528060008152602001600080191681526020016000801916815260200160008019168152602001600073ffffffffffffffffffffffffffffffffffffffff16815260200160001515815250905600a165627a7a72305820a60d47b808961386c1bff4164f6787bdafeda2aa1172df77e3d3c38a7c3c051b0029a165627a7a72305820c5a71cb7178a299248b3c759b3df57388cd7976faa3299ea5e043d1ea6a1e0cf0029",
  "source": "pragma solidity ^0.4.24;\r\n\r\nimport \"./IdentityGovernment.sol\";\r\nimport \"./IdentityInsurer.sol\";\r\nimport \"./IdentityCustomer.sol\";\r\n\r\n/** @title IdentityFactory\r\n  * @author Jo Moodley\r\n  * @notice Self-sovereign identity demo for funeral insurance\r\n  * @notice Contract that creates identities for government, insurer, customer and customer's relative.\r\n */\r\ncontract IdentityFactory {\r\n    address private government; // Government's identifier.\r\n    address private insurer; // Insurer's identifier.\r\n    uint public identityCount = 0; // Number of identities.\r\n\r\n    // Structure for a claim on a service or product that a provider offers.\r\n    struct ServiceClaim {\r\n        address provider;\r\n        bytes32 providerName;\r\n        bytes32 description;\r\n        uint contact;\r\n    }\r\n\r\n    ServiceClaim[] public services; // Service claims of providers.\r\n    mapping(address => address) private ownerToContract; // Maps user's account address to user's contract address.\r\n    mapping(address => uint) public ownerToIDType; // Maps user to type of identity.\r\n\r\n    event NewIdentity(); // To notify app when identity is created.\r\n\r\n    // Create identity for user.\r\n    // Input _IDType 1 for government, 2 for insurer, 3 for customer, 4 for relative.\r\n    function createIdentity(uint _IDType) public {\r\n        require(ownerToContract[msg.sender] == address(0));\r\n        if (_IDType == 1) {\r\n            require(government == address(0));\r\n            IdentityGovernment gov = new IdentityGovernment(msg.sender);\r\n            ownerToContract[msg.sender] = address(gov);\r\n            government = msg.sender;\r\n            services.push(ServiceClaim(government, \"SA Government\", \"Verifier\", 5550100));\r\n        } else if (_IDType == 2) {\r\n            require(insurer == address(0));\r\n            IdentityInsurer corp = new IdentityInsurer(msg.sender);\r\n            ownerToContract[msg.sender] = address(corp);\r\n            insurer = msg.sender;\r\n            services.push(ServiceClaim(insurer, \"Insurer\", \"Single Funeral Plan\", 5550101));\r\n            services.push(ServiceClaim(insurer, \"Insurer\", \"Family Funeral Plan\", 5550102));\r\n        } else if (_IDType == 3 || _IDType == 4) {\r\n            IdentityCustomer c = new IdentityCustomer(msg.sender);\r\n            ownerToContract[msg.sender] = address(c);\r\n        }\r\n        if (ownerToContract[msg.sender] != address(0)) {\r\n            ownerToIDType[msg.sender] = _IDType;\r\n            identityCount++;\r\n            emit NewIdentity();\r\n        }\r\n    }\r\n\r\n    // Get the number of service claims.\r\n    function getServiceCount() public view returns (uint) {\r\n        return services.length;\r\n    }\r\n\r\n    // Get government's account address.\r\n    function getGovAddress() public view returns (address) {\r\n        return government;\r\n    }\r\n\r\n    // Get user's contract address.\r\n    // Input _IDType 1 for government, _IDType 2 for insurer, or user's account address.\r\n    function getContractAddress(uint _IDType, address _owner) public view returns (address) {\r\n        if (_IDType == 1) {\r\n            return ownerToContract[government];\r\n        } else if (_IDType == 2) {\r\n            return ownerToContract[insurer];\r\n        } else {\r\n            return ownerToContract[_owner];\r\n        }\r\n    }\r\n}",
  "sourcePath": "C:\\Users\\Jo\\Main\\Identity\\contracts\\IdentityFactory.sol",
  "compiler": {
    "name": "solc",
    "version": "0.4.24+commit.e67f0147.Emscripten.clang"
  },
  "schemaVersion": "2.0.1",
  "updatedAt": "2019-02-10T22:48:18.643Z"
}